:050842000000000000B1
:10080B000D1775703A333620646F776E3A350001E9
:02081B002400B7
:1007BF001207DB7F8812081E7F431208281207F4E6
:0C07CF0012044F7FE87E0312078880F1BF
:10059600E4F51475150120B1367F1EFE120788207A
:1005A600B12A05147FC412081EE51B2514F516FF93
:1005B600120828D3E516648094B94010E4F5147F38
:1005C600C312081EE51A2515FF12082830B1FD20B2
:1005D600B0387F1E7E0012078820B02B15147FC40A
:1005E60012081EC3E51B9514FF120828C3E51B95C8
:1005F60014C3943050117514097FC312081EC3E545
:100606001A9515FF12082830B0FD20B22B7F1E7EEA
:100616000012078820B21E7FC312081EAF1A1208E6
:10062600287FC412081EAF1B1208287FD112081E8D
:08063600AF2212082830B2FDCA
:01063E002299
:04044F008E088F097B
:10045300780A7C007D007BFF7A0879427E007F0565
:10046300120390C3E50864809480501A7F801208B9
:100473001E7F2D120828E509150970021508630966
:10048300FF6308FF800A7F8012081E7F2B12082853
:10049300AC08AD09EC1202068F138E128D118C106D
:1004A300E4FFFE7DC87C40AB13AA12A911A8101269
:1004B30000FBE4FBFAF9783F12000A12023F8E08B0
:1004C3008F09AE08AF097C277D101203B68F0AAEE1
:1004D30008AF097C277D101203B67E037FE8CFCDDA
:1004E300CFCECCCE1203B68F0BAE08AF097C037D03
:1004F300E81203B67E007F64CFCDCFCECCCE1203FD
:10050300B68F0CAE08AF097C007D641203B67E0083
:100513007F0ACFCDCFCECCCE1203B68F0DAE08AFB0
:10052300097C007D0A1203B68D0E7F8212081EE538
:100533000A2430FF1208287F8312081EE50B24309B
:10054300FF1208287F8412081EE50C2430FF1208CE
:10055300287F8512081E7F2E1208287F8612081E08
:10056300E50D2430FF1208287F8712081EE50E24AC
:1005730030FF1208287FC012081EE4F50F741725F8
:100583000FF8E6FF120828050FE50FC3940C40EDA2
:03059300020596C8
:10077700C2A58F807F017E00120788D2A77F057EE2
:010787000071
:10078800D3EF9400EE9400400F7DC77C01DCFEDDC2
:08079800FAEF1F70EB1E80E870
:0107A0002236
:0A081E00C2A7C2A6120777C2A722E4
:0A082800C2A7D2A6120777C2A722CA
:1007DB007F3812081E7F0C12081E7F0612081E7F20
:0907EB000112081E7F8002081EA5
:1007A100D3EF9400EE940040147D6E7C00ED1D703B
:0D07B100011CED4C70F7EF1F70E61E80E399
:0107BE002218
:10074B00C2B77F467E00EF1FAC0670011E4C70F6E1
:10075B00D2B7E4FEFF30B7110FBF00010ED3EF94F9
:0B076B0088EE941340EF7F00227F0116
:010776002260
:0C06CB0012074B7F017E001207A17FCCBC
:1006D700E4FBFAC2B7050AE50A70020509EF1392AF
:1006E700B7750900750A06E50A150AAC09700215FF
:1006F700094C70F3D2B7EFC313FF0BBB00010AEB32
:0507070064084A70CEF9
:01070C0022CA
:10070D007D087C00C2B70FBF0000D2B70FBF00003D
:10071D000FBF0000A2B7E433C43333335480FBE979
:10072D00C3134BF97E007F04EF1FAA0670011E4A0A
:0D073D0070F6ED1D70011CED4C70C9AF0190
:01074A00228C
:080832001206CB7F440206D739
:08083A001206CB7FBE0206D7B7
:1007F400E4FFFE12083212083A12070D8F0812079E
:060804000DEFFEE508FF08
:01080A0022CB
:100003000202ABE86480F8E933E83360110460F07E
:10001300ED33EC337009E8FCE9FDEAFEEBFF220463
:1000230060DED3EB9FEA9EE99DE8C2E78CF0C2F75E
:1000330095F0400CE8CCF8E9CDF9EACEFAEBCFFB2A
:1000430012027685D0F05804700320D5B3E804700B
:10005300075002B2D50202B592D5EC0460F7E4CCA6
:10006300C0E0C398F8603B94186008400DD0E0FBF3
:1000730002028DE4FBFAC9FC8028E830E406E4C9F7
:10008300FBE4CAFCE830E305E4C9CACBFCE8540747
:100093006010F8C3E913F9EA13FAEB13FBEC13FC52
:1000A300D8F130F52FC3E49CFCEF9BFFEE9AFEEDF5
:1000B30099FDD0E0FBEF4E4D4C701222DB030202A0
:1000C300B2EC2CFCEF33FFEE33FEED33FDED30E706
:1000D300EB02028DEF2BFFEE3AFEED39FDD0E0FB94
:1000E30050130BBB00030202B5ED13FDEE13FEEF3D
:0800F30013FFEC13FC02028D67
:1000FB00EC4D6011E8497017ED33EC3304600DE4FF
:10010B00FCFFFEFD22E933E8330470F80202AB1268
:10011B00027658046009E4CC248150062850090269
:10012B0002B52840030202B2C0E0EB4A7044B9802A
:10013B0006D0E0FB0202A1EF4E701CBD8008EBFF66
:10014B00EAFEE9FD80EBE98DF0A4FEE5F00201E4A7
:10015B00E9CDF9EAFEEBFFEF89F0A4FCE5F0CE89DF
:10016B00F0A42EFFE435F0CD89F0A42DFEE435F09C
:10017B008067EF4E7005BD80D780C3EF8BF0A4ACCA
:10018B00F0EE8BF0A42CFCE435F0F8EF8AF0A42C05
:10019B00E5F038FCE433CB8DF0A42CFCE5F03BF818
:1001AB00EE8AF0A42CFCE5F038F8E433CF89F0A408
:1001BB002CFCE5F038CF3400CE89F0A42FFFE5F00E
:1001CB003EFEE433C98DF0A42EFEE5F039CD8AF066
:1001DB00A42FFFE5F03EFEE43DFD33D0E0FB5007DE
:1001EB000BBB000F0202B5EC2CFCEF33FFEE33FE22
:0601FB00ED33FD02028D50
:1002010075F020800E75F010800575F0087D007E78
:10021100007F003392D530D5031203ECEC3340104C
:10022100EF33FFEE33FEED33FDEC33FCD5F0ED2281
:0E023100E5F0247EA2D513CC92E7CDCEFF22BD
:10023F00EDD2E7CD33EC3392D524814006E4FFFEB7
:10024F00FDFC22FCE4CFCECDCC24E0501174FF8016
:10025F00EDC3CC13CCCD13CDCE13CECF13CF0470B3
:07026F00F030D5DE0203ECC4
:10027600E9D2E7C933E833F892D5EDD2E7CD33ECCE
:0702860033FC5002B2D52247
:10028D00EC30E7100FBF000C0EBE00080DBD0004D2
:10029D000BEB6014A2D5EB13FCED92E7FD2274FF7E
:1002AD00FCFDFEFF22E480F8A2D574FF13FC7D80D7
:0302BD00E480EFEB
:0300000002063FB6
:0C063F00787FE4F6D8FD75812402068661
:1002C000E709F608DFFA8046E709F208DFFA803E20
:1002D00088828C83E709F0A3DFFA8032E309F6080D
:1002E000DFFA8078E309F208DFFA807088828C8375
:1002F000E309F0A3DFFA806489828A83E0A3F60829
:10030000DFFA805889828A83E0A3F208DFFA804C02
:1003100080D280FA80C680D4806980F280338010D9
:1003200080A680EA809A80A880DA80E280CA803342
:1003300089828A83ECFAE493A3C8C582C8CCC583BA
:10034000CCF0A3C8C582C8CCC583CCDFE9DEE7808A
:100350000D89828A83E493A3F608DFF9ECFAA9F009
:10036000EDFB2289828A83ECFAE0A3C8C582C8CC5F
:10037000C583CCF0A3C8C582C8CCC583CCDFEADE78
:10038000E880DB89828A83E493A3F208DFF980CCDA
:1003900088F0EF60010E4E60C388F0ED2402B404D3
:1003A0000050B9F582EB2402B4040050AF2323457A
:0603B0008223900310738C
:1003B600C2D5EC30E709B2D5E4C39DFDE49CFCEE62
:1003C60030E715B2D5E4C39FFFE49EFE1203FAC3DD
:1003D600E49DFDE49CFC80031203FA30D507C3E4D8
:0603E6009FFFE49EFE22D1
:0E03EC00C3E49FFFE49EFEE49DFDE49CFC2222
:10064B000207BFE493A3F8E493A34003F68001F2FF
:10065B0008DFF48029E493A3F85407240CC8C333B0
:10066B00C4540F4420C8834004F456800146F6DF7F
:10067B00E4800B010204081020408090080BE47EFC
:10068B00019360BCA3FF543F30E509541FFEE49374
:10069B00A360010ECF54C025E060A840B8E493A33B
:1006AB00FAE493A3F8E493A3C8C582C8CAC583CA66
:1006BB00F0A3C8C582C8CAC583CADFE9DEE780BE1E
:01081D0000DA
:1003FA00BC000BBE0029EF8DF084FFADF022E4CCE7
:10040A00F875F008EF2FFFEE33FEEC33FCEE9DECAF
:10041A00984005FCEE9DFE0FD5F0E9E4CEFD22EDF5
:10042A00F8F5F0EE8420D21CFEADF075F008EF2F3F
:10043A00FFED33FD4007985006D5F0F222C398FD30
:05044A000FD5F0EA22CD
:00000001FF
