:100AD4003031323334353637383900000000000005
:100A56000A0C483A3336204C3A3330000219002447
:0F0A660002080063021B001E020A0000011800B4
:10063F00120A947F88120AE47F43120AEE7FC012D7
:10064F000AE4E4F51E740C251EF8E6FF120AEE0507
:10065F001EE51EC3940940ED120AAD8E168F1712B8
:10066F0007A57F1E7E00120A1712045A120AC4AC85
:10067F0016AD17EC120211E4FBFA7980783D1201E6
:10068F000612024A8E1F8F20C3E520951AE51964C2
:10069F0080F8E51F64809840183091157F8B120AFF
:1006AF00E4900AD7E493FF120AEED28C751DFF80F7
:1006BF00A7C3E51A951CFFE519951BFE7C007D026B
:1006CF001203C1E51C2FFFE51B3EFEC3E5209FEE85
:1006DF006480F8E51F648098403BD3E520951AE5C8
:1006EF00196480F8E51F648098502AC3E520951C93
:1006FF00E51B6480F8E51F64809840193091167FE0
:10070F008B120AE4900AD6E493FF120AEED28C758C
:10071F001D96020667C3E520951CE51B6480F8E56E
:10072F001F6480984041E51A951CFFE519951BFE43
:10073F007C007D021203C1E51C2FFFE51B3EFED39B
:10074F00E5209FEE6480F8E51F6480985019309182
:10075F00167F8B120AE4900AD5E493FF120AEED2A9
:10076F008C751D4B020667C3E520951CE51B648045
:10077F00F8E51F64809840063091030206677F8B6F
:10078F00120AE4900AD4E493FF120AEEC28C751D8C
:06079F00FFC29002066794
:100AC400438901758CF4758ADAD28CD2A9D2AF220B
:10045A0020B1757F1E7E00120A1720B168051AE5C1
:10046A001A70020519D39509E5086480F8E519643C
:10047A0080987FC24011120AE47F2D120AEE7FC3D0
:10048A00120AE47F2D803B120AE4AE19AF1A7C00EF
:10049A007D0A1203C174D42FF582740A3EF583E4EF
:1004AA0093FF120AEE7FC3120AE4AE19AF1A7C0058
:1004BA007D0A1203C174D42DF582740A3CF583E4D3
:1004CA0093FF120AEE30B1FD20B0777F1E7E001234
:1004DA000A1720B06AE51A151A70021519C3E51A27
:1004EA00951CE51B6480F8E5196480987FC2501159
:1004FA00120AE47F2D120AEE7FC3120AE47F2D80CE
:10050A003B120AE4AE19AF1A7C007D0A1203C174C9
:10051A00D42FF582740A3EF583E493FF120AEE7F24
:10052A00C3120AE4AE19AF1A7C007D0A1203C17421
:10053A00D42DF582740A3CF583E493FF120AEE3057
:10054A00B0FD20B2757F1E7E00120A1720B2680520
:10055A001CE51C7002051BD3951AE5196480F8E5A1
:10056A001B6480987FC74011120AE47F2D120AEE9D
:10057A007FC8120AE47F2D803B120AE4AE1BAF1C2F
:10058A007C007D0A1203C174D42FF582740A3EF5E9
:10059A0083E493FF120AEE7FC8120AE4AE1BAF1C73
:1005AA007C007D0A1203C174D42DF582740A3CF5CD
:1005BA0083E493FF120AEE30B2FD20B3777F1E7EEA
:1005CA0000120A1720B36AE51C151C7002151BC31A
:1005DA00E51C950BE50A6480F8E51B6480987FC7E3
:1005EA005011120AE47F2D120AEE7FC8120AE47F24
:1005FA002D803B120AE4AE1BAF1C7C007D0A12035D
:10060A00C174D42FF582740A3EF583E493FF120A6B
:10061A00EE7FC8120AE4AE1BAF1C7C007D0A1203EF
:10062A00C174D42DF582740A3CF583E493FF120A4F
:05063A00EE30B3FD22CB
:0407A5008E218F22F0
:1007A90078237C007D007BFF7A0A79DF7E007F0554
:1007B90012039BC3E52164809480501A7F80120A3A
:1007C900E47F2D120AEEE52215227002152163221B
:1007D900FF6321FF800A7F80120AE47F2B120AEE51
:1007E900AC21AD22EC1202118F2B8E2A8D298C2877
:1007F900E4FFFE7DC87C40AB2BAA2AA929A82812B0
:100809000106E4FBFAF9783F12001512024A8E211B
:100819008F22AE21AF227C277D101203C18F23AE18
:1008290021AF227C277D101203C17E037FE8CFCD43
:10083900CFCECCCE1203C18F24AE21AF227C037D53
:10084900E81203C17E007F64CFCDCFCECCCE120398
:10085900C18F25AE21AF227C007D641203C17E00C9
:100869007F0ACFCDCFCECCCE1203C18F26AE21AF1A
:10087900227C007D0A1203C18D277F82120AE4E5DA
:10088900232430FF120AEE7F83120AE4E524243080
:10089900FF120AEE7F84120AE4E5252430FF120ACA
:1008A900EE7F85120AE47F2E120AEE7F86120AE491
:1008B900E5262430FF120AEE7F87120AE4E5272491
:0508C90030FF020AEE01
:03000B00020A30B6
:100A3000C0E0C0D0758CF4758ADA0518E518B4FFEB
:100A400003751800E518D3951D5004D2908002C29A
:060A500090D0D0D0E0328E
:100A0600C2A58F807F017E00120A17D2A77F057EBE
:010A160000DF
:100A1700D3EF9400EE9400400F7DC77C01DCFEDD30
:080A2700FAEF1F70EB1E80E8DE
:010A2F0022A4
:0A0AE400C2A7C2A6120A06C2A7228A
:0A0AEE00C2A7D2A6120A06C2A72270
:100A94007F38120AE47F0C120AE47F06120AE47F0C
:090AA40001120AE47F80020AE459
:100A7600D3EF9400EE940040147D6E7C00ED1D7063
:0D0A8600011CED4C70F7EF1F70E61E80E3C1
:010A93002240
:1009DA00C2B77F467E00EF1FAC0670011E4C70F650
:1009EA00D2B7E4FEFF30B7110FBF00010ED3EF9468
:0B09FA0088EE941340EF7F00227F0185
:010A050022CE
:0C095A001209DA7F017E00120A767FCCC1
:10096600E4FBFAC2B70523E52370020522EF1392D2
:10097600B7752200752306E5231523AC22700215F0
:10098600224C70F3D2B7EFC313FF0BBB00010AEB87
:0509960064084A70CE68
:01099B002239
:10099C007D087C00C2B70FBF0000D2B70FBF0000AC
:1009AC000FBF0000A2B7E433C43333335480FBE9E8
:1009BC00C3134BF97E007F04EF1FAA0670011E4A79
:0D09CC0070F6ED1D70011CED4C70C9AF01FF
:0109D90022FB
:0800030012095A7F440209664C
:080AF80012095A7FBE020966D3
:100AAD00E4FFFE120003120AF812099C8F211209AD
:060ABD009CEFFEE521FFA5
:010AC3002210
:10000E000202B6E86480F8E933E83360110460F068
:10001E00ED33EC337009E8FCE9FDEAFEEBFF220458
:10002E0060DED3EB9FEA9EE99DE8C2E78CF0C2F753
:10003E0095F0400CE8CCF8E9CDF9EACEFAEBCFFB1F
:10004E0012028185D0F05804700320D5B3E80470F5
:10005E00075002B2D50202C092D5EC0460F7E4CC90
:10006E00C0E0C398F8603B94186008400DD0E0FBE8
:10007E00020298E4FBFAC9FC8028E830E406E4C9E1
:10008E00FBE4CAFCE830E305E4C9CACBFCE854073C
:10009E006010F8C3E913F9EA13FAEB13FBEC13FC47
:1000AE00D8F130F52FC3E49CFCEF9BFFEE9AFEEDEA
:1000BE0099FDD0E0FBEF4E4D4C701222DB03020295
:1000CE00BDEC2CFCEF33FFEE33FEED33FDED30E7F0
:1000DE00EB020298EF2BFFEE3AFEED39FDD0E0FB7E
:1000EE0050130BBB00030202C0ED13FDEE13FEEF27
:0800FE0013FFEC13FC02029851
:10010600EC4D6011E8497017ED33EC3304600DE4F3
:10011600FCFFFEFD22E933E8330470F80202B61252
:10012600028158046009E4CC248150062850090253
:1001360002C02840030202BDC0E0EB4A7044B98009
:1001460006D0E0FB0202ACEF4E701CBD8008EBFF50
:10015600EAFEE9FD80EBE98DF0A4FEE5F00201EF91
:10016600E9CDF9EAFEEBFFEF89F0A4FCE5F0CE89D4
:10017600F0A42EFFE435F0CD89F0A42DFEE435F091
:100186008067EF4E7005BD80D780C3EF8BF0A4ACBF
:10019600F0EE8BF0A42CFCE435F0F8EF8AF0A42CFA
:1001A600E5F038FCE433CB8DF0A42CFCE5F03BF80D
:1001B600EE8AF0A42CFCE5F038F8E433CF89F0A4FD
:1001C6002CFCE5F038CF3400CE89F0A42FFFE5F003
:1001D6003EFEE433C98DF0A42EFEE5F039CD8AF05B
:1001E600A42FFFE5F03EFEE43DFD33D0E0FB5007D3
:1001F6000BBB000F0202C0EC2CFCEF33FFEE33FE0C
:06020600ED33FD02029839
:10020C0075F020800E75F010800575F0087D007E6D
:10021C00007F003392D530D5031203F7EC33401036
:10022C00EF33FFEE33FEED33FDEC33FCD5F0ED2276
:0E023C00E5F0247EA2D513CC92E7CDCEFF22B2
:10024A00EDD2E7CD33EC3392D524814006E4FFFEAC
:10025A00FDFC22FCE4CFCECDCC24E0501174FF800B
:10026A00EDC3CC13CCCD13CDCE13CECF13CF0470A8
:07027A00F030D5DE0203F7AE
:10028100E9D2E7C933E833F892D5EDD2E7CD33ECC3
:0702910033FC5002B2D5223C
:10029800EC30E7100FBF000C0EBE00080DBD0004C7
:1002A8000BEB6014A2D5EB13FCED92E7FD2274FF73
:1002B800FCFDFEFF22E480F8A2D574FF13FC7D80CC
:0302C800E480EFE0
:030000000208CE25
:0C08CE00787FE4F6D8FD75812B02091537
:1002CB00E709F608DFFA8046E709F208DFFA803E15
:1002DB0088828C83E709F0A3DFFA8032E309F60802
:1002EB00DFFA8078E309F208DFFA807088828C836A
:1002FB00E309F0A3DFFA806489828A83E0A3F6081E
:10030B00DFFA805889828A83E0A3F208DFFA804CF7
:10031B0080D280FA80C680D4806980F280338010CE
:10032B0080A680EA809A80A880DA80E280CA803337
:10033B0089828A83ECFAE493A3C8C582C8CCC583AF
:10034B00CCF0A3C8C582C8CCC583CCDFE9DEE7807F
:10035B000D89828A83E493A3F608DFF9ECFAA9F0FE
:10036B00EDFB2289828A83ECFAE0A3C8C582C8CC54
:10037B00C583CCF0A3C8C582C8CCC583CCDFEADE6D
:10038B00E880DB89828A83E493A3F208DFF980CCCF
:10039B0088F0EF60010E4E60C388F0ED2402B404C8
:1003AB000050B9F582EB2402B4040050AF2323456F
:0603BB00822390031B7376
:1003C100C2D5EC30E709B2D5E4C39DFDE49CFCEE57
:1003D10030E715B2D5E4C39FFFE49EFE120405C3C6
:1003E100E49DFDE49CFC800312040530D507C3E4C1
:0603F1009FFFE49EFE22C6
:0E03F700C3E49FFFE49EFEE49DFDE49CFC2217
:1008DA0002063FE493A3F8E493A34003F68001F2EF
:1008EA0008DFF48029E493A3F85407240CC8C3331F
:1008FA00C4540F4420C8834004F456800146F6DFEE
:10090A00E4800B0102040810204080900A56E47E1D
:10091A00019360BCA3FF543F30E509541FFEE493E2
:10092A00A360010ECF54C025E060A840B8E493A3A9
:10093A00FAE493A3F8E493A3C8C582C8CAC583CAD4
:10094A00F0A3C8C582C8CAC583CADFE9DEE780BE8C
:010A75000080
:10040500BC000BBE0029EF8DF084FFADF022E4CCDB
:10041500F875F008EF2FFFEE33FEEC33FCEE9DECA4
:10042500984005FCEE9DFE0FD5F0E9E4CEFD22EDEA
:10043500F8F5F0EE8420D21CFEADF075F008EF2F34
:10044500FFED33FD4007985006D5F0F222C398FD25
:050455000FD5F0EA22C2
:00000001FF
