:020000040800F2
:1000000020080020450100088503000807030008B8
:1000100081030008B9010008010A0008000000007F
:1000200000000000000000000000000017070008AA
:10003000BD0100080000000089050008290800082B
:100040005F0100085F0100085F0100085F01000810
:100050005F0100085F0100085F0100085F01000800
:100060005F0100085F0100085F0100085F010008F0
:100070005F0100085F0100085F0100085F010008E0
:100080005F0100085F0100085F0100085F010008D0
:100090005F0100085F0100085F0100085F010008C0
:1000A0005F0100085F0100085F0100085F010008B0
:1000B0005F0100085F0100085F0100085F010008A0
:1000C0005F0100085F0100085F0100085F01000890
:1000D0005F0100088D0800088F08000891080008DB
:1000E0005F0100085F0100085F0100085F01000870
:1000F0005F0100085F0100085F0100085F01000860
:100100005F0100085F0100085F0100085F0100084F
:100110005F0100085F0100085F0100085F0100083F
:100120005F0100085F0100085F0100085F0100082F
:10013000DFF80CD000F02EF800480047890F0008C7
:10014000200800200648804706480047FEE7FEE7F3
:10015000FEE7FEE7FEE7FEE7FEE7FEE7FEE7FEE777
:100160002D0800083101000830B50B46014600207B
:100170002022012409E021FA02F59D4205D303FA69
:1001800002F5491B04FA02F52844151EA2F10102EA
:10019000F1DC30BD064C074D06E0E06840F001039D
:1001A00094E8070098471034AC42F6D3FFF7C4FF39
:1001B000981B0008B81B000800BFFEE7704742F21A
:1001C00028314FF0E02251610021916107E000BF2A
:1001D0004FF0E021096901F480310029F8D0011EB7
:1001E000A0F10100F3D170472DE9F041024600254E
:1001F0000026002000230024002791F803C00CF003
:100200000F0591F803C00CF0100CBCF1000F03D0E7
:1002100091F802C04CEA050591F800C0BCF1000F4E
:1002200031D0146800202BE04FF0010C0CFA00F3E1
:10023000B1F800C00CEA03069E4220D183004FF0C3
:100240000F0C0CFA03F7BC4305FA03FC4CEA040458
:1002500091F803C0BCF1280F06D14FF0010C0CFA45
:1002600000FCC2F814C00AE091F803C0BCF1480FCA
:1002700005D14FF0010C0CFA00FCC2F810C0401C74
:100280000828D1D31460B1F800C0BCF1FF0F34DDF1
:10029000546800202EE000F1080C4FF0010808FA25
:1002A0000CF3B1F800C00CEA03069E4221D1830092
:1002B0004FF00F0C0CFA03F7BC4305FA03FC4CEAB1
:1002C000040491F803C0BCF1280F05D100F1080C1B
:1002D00008FA0CF8C2F8148091F803C0BCF1480F7A
:1002E00007D100F1080C4FF0010808FA0CF8C2F829
:1002F0001080401C0828CED35460BDE8F0814161D5
:1003000070470161704700BFFEE770B505460C46B7
:1003100000F0CAFC782000F09DFC00F0EDFC00B17C
:1003200010E0284600F096FC00F0E6FC00B109E081
:10033000204600F08FFC00F0DFFC00B102E000F08E
:10034000CBFC00BF00F0C8FC70BD000008B5012167
:10035000082000F02BF90120ADF8000010208DF8E6
:10036000030003208DF8020069460448FFF73CFFB4
:1003700001210248FFF7C5FF08BD0000000C014045
:1003800000BFFEE7704770B50646002415E004F193
:10039000B001C8B200F036FB002000F033FB1020A3
:1003A00000F030FB002504E0304600F032FB681C12
:1003B000C5B2802DF8DB601CC4B2082CE7DB70BD31
:1003C00010B54FF47A70FFF7FAFEAE2000F01AFB7A
:1003D000202000F017FB102000F014FBB02000F0EC
:1003E00011FBC82000F00EFB002000F00BFB1020DA
:1003F00000F008FB402000F005FB812000F002FB2C
:10040000FF2000F0FFFAA12000F0FCFAA62000F087
:10041000F9FAA82000F0F6FA3F2000F0F3FAA42041
:1004200000F0F0FAD32000F0EDFA002000F0EAFA34
:10043000D52000F0E7FAF02000F0E4FAD92000F02F
:10044000E1FA222000F0DEFADA2000F0DBFA1220D6
:1004500000F0D8FADB2000F0D5FA202000F0D2FA24
:100460008D2000F0CFFA142000F0CCFAAF2000F07D
:10047000C9FA10BD70B504460D4605F1B001C8B209
:1004800000F0C0FA102141EA141000F0BBFA04F0A9
:100490000F0141F0010000F0B5FA70BD2DE9F04701
:1004A0000646894617469A464FF000080024002564
:1004B000BAF1010F03D0BAF1020F5ED125E020E0BE
:1004C000785D203800F0FF087E2E04DD002609F15B
:1004D000010000F0FF0949463046FFF7CBFF00243A
:1004E00009E008EB4801264A02EB4101085D00F0F3
:1004F00090FA601CC4B2062CF3DBB01DC6B2681CB7
:10050000C5B2785D0028DBD137E032E0785D203875
:1005100000F0FF08782E04DD002609F1010000F04C
:10052000FF0949463046FFF7A5FF002407E004EB2A
:100530000811144A505C00F06CFA601CC4B2082C1C
:10054000F5DB09F10100C1B23046FFF793FF00244B
:1005500008E004EB081108310A4A505C00F059FA2F
:10056000601CC4B2082CF4DB06F10800C6B2681C9B
:10057000C5B2785D0028C9D100BF00BFBDE8F087D3
:1005800080130008A81500087047000029B1064A2A
:10059000D2690243044BDA6104E0034AD269824320
:1005A000014BDA61704700000010024029B1064A91
:1005B00092690243044B9A6104E0034A92698243C0
:1005C000014B9A61704700000010024030B50021D5
:1005D0000022002400232D4D6D6805F00C0121B18F
:1005E000042905D0082923D105E0294D056022E022
:1005F000274D05601FE0254D6D6805F47012234DF1
:100600006D6805F48034022505EB92421CB9214D3A
:10061000554305600BE01D4D6D6805F400351DB1B7
:100620001C4D5543056002E0194D5543056002E03D
:10063000174D056000BF00BF144D6D6805F0F00157
:100640000909154D6B5C0568DD4045600F4D6D680F
:1006500005F4E061090A104D6B5C4568DD4085607A
:100660000A4D6D6805F46051C90A0B4D6B5C456815
:10067000DD40C560054D6D6805F44041890B074DAF
:100680006B5CC568B5FBF3F5056130BD0010024039
:1006900000127A0000093D001A0000202A00002004
:1006A00021B1028842F04002028004E002884FF645
:1006B000BF731A4002807047CA43028170470246E6
:1006C000002013890B400BB1012000E0002070478F
:1006D0000146888970478181704710B500220288E1
:1006E00002F441520B884C8823438C882343CC88E6
:1006F00023430C8923434C8923438C892343CC898E
:1007000023431A430280838B4FF2FF742340838379
:100710000B8A038210BD704710B500F001F810BDC0
:100720000CB50020019000903348006840F4803000
:100730003149086000BF3048006800F40030009084
:100740000198401C0190009818B90198B0F5A06F6D
:10075000F1D12948006800F4003010B10120009068
:1007600001E0002000900098012843D12348006850
:1007700040F01000214908600846006820F003009E
:1007800008600846006840F0020008601A484068A7
:10079000194948600846406848600846406840F487
:1007A000806048600846406820F47C104860084635
:1007B000406840F4E81048600846006840F08070E7
:1007C000086000BF0C48006800F000700028F9D0F5
:1007D0000948406820F0030007494860084640681F
:1007E00040F00200486000BF0348406800F00C0081
:1007F0000828F9D10CBD0000001002400020024082
:10080000042808D14FF0E021096941F004014FF0BC
:10081000E022116107E04FF0E021096921F00401B5
:100820004FF0E022116170477047000010B5134887
:10083000006840F00100114908600846406810490E
:1008400008400E494860084600680E4908400B49B8
:1008500008600846006820F4802008600846406868
:1008600020F4FE0048604FF41F008860FFF754FF3B
:100870004FF000600449086010BD00000010024005
:100880000000FFF8FFFFF6FE08ED00E0704770473C
:10089000704701F40072B2F5007F00D100BFCA4377
:1008A0000280704721B1828942F40052828104E0C3
:1008B00082894DF6FF731A408281704702460020FC
:1008C000B1F5007F00D100BF13880B400BB10120B0
:1008D00000E000207047F0B5034600240026002504
:1008E000002040F66A17B94200D100BF1846C1F394
:1008F000421401F01F06012707FA06F5012C01D169
:100900000C3004E0022C01D1103000E014301AB198
:1009100007682F43076002E00768AF430760F0BD38
:100920002DE9F04786B005460E460024A24600BFDA
:10093000A1460027B08900B100BF2F462C8A4CF693
:10094000FF700440F08804432C82AC894EF6F3100B
:100950000440B08831890843718908430443AC815D
:10096000AC8A4FF6FF400440B0890443AC8201A832
:10097000FFF72CFE1F48874202D1DDF810A001E0EE
:10098000DDF80CA0A88900F4004040B10AEBCA00D1
:1009900000EB0A1031684900B0FBF1F807E00AEB00
:1009A000CA0000EB0A1031688900B0FBF1F864203E
:1009B000B8FBF0F004012009642101FB1089A8892B
:1009C00000F4004040B1322000EBC900B0FBF1F070
:1009D00000F00700044308E0322000EB0910642116
:1009E000B0FBF1F000F00F0004432C8106B0BDE82D
:1009F000F087000000380140C1F308028280704790
:100A000000BFFEE710B5044621460020FFF77DFC3D
:100A100010BD10B5044621464020FFF776FC10BDFE
:100A20000FB4054B10B503A9044A029800F02CF846
:100A300010BC5DF814FB0000E90B0008300000203A
:100A40000FB4084B10B504A902AA039800F01CF8D3
:100A5000044602A9002000F0C1F8204610BC5DF851
:100A600014FB0000DD0B000802E008C8121F08C1DB
:100A7000002AFAD170477047002001E001C1121F1F
:100A8000002AFBD1704700002DE9FF4F89B09B463B
:100A90000446002506E025280BD05A460B999047BE
:100AA000641C6D1C20780028F5D10DB02846BDE8E7
:100AB000F08F0027B8460122474900E0074314F8A9
:100AC000013F203B02FA03F00842F7D120782E289C
:100AD00019D114F8010F47F004072A280ED06FF03F
:100AE0002F022078A0F1300109290CD808EB8801E9
:100AF00002EB410100EB0108641CF2E70A98641C58
:100B000050F8048B0A9020780028CED0642808D0B2
:100B1000692806D075281ED05A460B9990476D1C3F
:100B200058E00A994FF00A0901C90A91002802DA2F
:100B300040422D2102E0390504D52B218DF82010EB
:100B4000012103E0F90704D02021F7E78A4608AE27
:100B50000DE00021FAE70A994FF00A0901C90A914C
:100B6000F7E74946FFF700FB303106F8011D002882
:100B7000F7D1ADEB060000F12009780701D44FF062
:100B80000108C84502DDA8EB090000E0002080460E
:100B9000002706E008A85A46C05D0B9990476D1CD7
:100BA0007F1C5745F6DB04E030205A460B999047EE
:100BB0006D1CB8F10001A8F10108F5DC05E016F89C
:100BC000010B5A460B9990476D1CB9F10001A9F130
:100BD0000109F4DC641C65E7092801000A68531C5C
:100BE0000B6010707047000070B504460D46E1B20E
:100BF0000748FFF701FF00BF40210548FFF75EFEF1
:100C00000028F9D040210248FFF743FE204670BD7E
:100C10000038014008B501210420FFF7C7FC60201F
:100C2000ADF8000003208DF8020014208DF80300B9
:100C300069460348FFF7D8FA00F04EF808BD0000F7
:100C400000080140002001E0411CC8B20A28FBDB7B
:100C50007047000070B50446002520E004F08000D5
:100C600018B140200F49086003E040200D49091DDC
:100C70000860FFF7E7FF20200A490860FFF7E2FF5E
:100C800020200849091D0860072D02D14020091FB6
:100C900008606006040EFFF7D5FF681CC5B2082D7A
:100CA000DCDB70BD1008014010B540200949086028
:100CB00020200860FFF7C6FF40200649091D086094
:100CC000FFF7C0FF20200349091D0860FFF7BAFFA6
:100CD00010BD00001008014010B540200549086013
:100CE0002020091F0860FFF7ADFF40200149091FC0
:100CF000086010BD1408014010B540200C49086080
:100D0000FFF7A0FF20200A490860FFF79BFF084873
:100D10000838006800F0400008B1012400E0002419
:100D200020200349091D0860FFF78CFF204610BDF5
:100D30001008014010B586B00446334884420CD0F8
:100D40003248844208D101210C20FFF72FFC0121F9
:100D50008803FFF71BFC00E000BF2B4884422DD026
:100D60002A48844229D18015ADF8140010208DF84E
:100D7000170003208DF8160005A92548FFF734FA5F
:100D8000A1152348FFF7BDFA4FF42040ADF8140039
:100D900018208DF8170003208DF8160005A91D48AE
:100DA000FFF722FA2014ADF8140004208DF8170084
:100DB00005A91848FFF718FA00E000BF0020ADF8B9
:100DC00000004FF48270ADF802000020ADF804007E
:100DD000ADF80600ADF808004FF40070ADF80A0059
:100DE0003020ADF80C000020ADF80E000720ADF863
:100DF000100069462046FFF770FC01212046FFF7EE
:100E00004FFC06B010BD000000300140003800402B
:100E100000080140000C014008B501210820FFF73F
:100E2000C5FB4FF48050ADF8000010208DF8030092
:100E300003208DF8020069462148FFF7D5F94FF4E9
:100E400080511F48FFF75DFA00F04AF9002000F0DA
:100E5000EAF9802000F0BAF9012000F0E4F900215D
:100E6000402000F077FA0021412000F073FA00F0F2
:100E7000FFF91448007800F00FFA1348007800F0EA
:100E800031FA1248007800F082F9012000F0D9F917
:100E90000F48007800F06CF9002000F088F9FF207E
:100EA00000F0DFF940F2FF3000F02EFA012000F0F0
:100EB0009BF9FF21122000F04DFA00F0FBF908BD6C
:100EC000000C014006000020030000200400002068
:100ED0000500002010B56FF00400FFF791FC4FF003
:100EE000E020006940F002004FF0E0210861084670
:100EF000006940F0010008610920486110BD000050
:100F000000B585B0012144F20400FFF74FFB4FF418
:100F10000070ADF8100018208DF8130003208DF834
:100F2000120004A91648FFF75FF94FF48060ADF88E
:100F3000100004208DF8130004A91148FFF754F99C
:100F40004FF4E13000900020ADF80400ADF8060049
:100F5000ADF80800ADF80C000C20ADF80A006946A9
:100F60000848FFF7DDFC01210648FFF79BFC012242
:100F700040F225510348FFF7AEFC05B000BD00006C
:100F8000000801400038014008B500BFFFF7A2FF8C
:100F9000FFF7B6FFFFF7DAF91648FFF7CBFEFFF7CA
:100FA0003BFFFFF737FEFFF70BFA0020FFF7EBF9E7
:100FB0001FE0684600F05EF89DF800100EA0FFF7F5
:100FC0002FFD9DF800200DA10D48FFF739FD0223EC
:100FD0000B4A00210846FFF761FA0A48006808B981
:100FE000012000E00020074908604FF4FA70FFF785
:100FF000E6F8DEE70038004025640A0025640000BA
:10100000340000208081214210B5044600BF022137
:101010002046FFF754FB0028F9D002212046FFF7B5
:101020004BFBFF212046FFF756FB00BF0121204666
:10103000FFF745FB0028F9D001212046FFF73CFBD4
:101040002046FFF745FB10BD70B50446002000F0B8
:101050007DF804F07F01064800F056F80448FFF7D9
:10106000D3FFC5B2012000F071F8284670BD000022
:101070000038004070B5054600F01CF91220FFF75B
:10108000E3FF00F04000402826D11E20FFF7DCFFE0
:1010900000F0040004281BD100210D2000F05AF9B3
:1010A0001320FFF7D1FF0646002000F04FF8002183
:1010B0000A4800F029F8002405E00848FFF7A4FFDB
:1010C0002855601CC4B2B442F7DB012000F03EF8A2
:1010D000FF21122000F03EF970BD000000380040F2
:1010E00010B54FF480510748FFF709F90A20FFF7C0
:1010F00066F84FF480510348FFF703F90A20FFF721
:101100005EF810BD000C014070B504460D4600BFEE
:1011100002212046FFF7D3FA0028F9D00221204609
:10112000FFF7CAFA29462046FFF7D5FA00BF01218A
:101130002046FFF7C4FA0028F9D001212046FFF726
:10114000BBFA2046FFF7C4FA70BD000010B5044694
:101150002CB14FF480710548FFF7D3F804E04FF449
:1011600080710248FFF7CBF810BD00000008014075
:1011700070B504461D20FFF767FF0546284664F357
:101180001F10C5B229461D2000F0E4F870BD70B5EF
:1011900004461D20FFF758FF054605F0F10040EA20
:1011A0004400C5B229461D2000F0D4F870BD70B5CA
:1011B00004461D20FFF748FF054605F0FE0040EA03
:1011C000040529461D2000F0C5F870BD70B5054620
:1011D0000120FFF739FF044604F07F042C43214629
:1011E000012000F0B7F870BD70B504462620FFF767
:1011F0002BFF054605F0F70040EAC400C5B22946BA
:10120000262000F0A7F870BD70B504463120FFF726
:101210001BFF054605F0F80040EA04052946312089
:1012200000F098F870BD70B505460120FFF70CFF7F
:10123000044604F0F8042C432146012000F08AF80B
:1012400070BD70B504461E20FFF7FEFE054605F092
:10125000FB0040EA8400C5B229461E2000F07AF85F
:1012600070BD10B504462146222000F073F810BD71
:1012700010B508480178062000F06CF80548417860
:10128000072000F067F803488178082000F062F832
:1012900010BD00000000002010B5044687214D203D
:1012A00000F058F80248015D092000F053F810BD25
:1012B0000700002010B50120FFF7B5FF9F21112086
:1012C00000F048F8FF21242000F044F800214020DD
:1012D00000F040F80021412000F03CF80520FFF725
:1012E000A2FF10BD70B504460320FFF78DFF1E203E
:1012F000FFF7AAFE0546284664F31F10C5B229462B
:101300001E2000F027F870BD38B504461E20FFF7F8
:101310009BFE8DF800001F20FFF796FE8DF8010060
:101320009DF8000000F0FC00032101EA14210843AD
:10133000C0B28DF80000E0B28DF801009DF80010F9
:101340001E2000F007F89DF801101F2000F002F8A1
:1013500038BD000070B504460D460020FFF7F6FECC
:1013600044F080010548FFF7CFFE29460348FFF708
:10137000CBFE0120FFF7EAFE70BD00000038004000
:101380000000000000000000002F00000000070027
:10139000070000147F147F1400242A7F2A120062A1
:1013A000640813230036495522500000050300004D
:1013B00000001C224100000041221C000014083ED5
:1013C00008140008083E0808000000A0600000089B
:1013D00008080808000060600000002010080402EF
:1013E000003E5149453E0000427F400000426151AD
:1013F0004946002141454B31001814127F10002747
:1014000045454539003C4A49493000017109050309
:1014100000364949493600064949291E000036363A
:10142000000000005636000000081422410000149D
:10143000141414140000412214080002015109067A
:1014400000324959513E007C1211127C007F4949FB
:101450004936003E41414122007F4141221C007F2C
:1014600049494941007F09090901003E4149497A3A
:10147000007F0808087F0000417F410000204041B4
:101480003F01007F08142241007F40404040007F20
:10149000020C027F007F0408107F003E4141413E64
:1014A000007F09090906003E4151215E007F0919AC
:1014B00029460046494949310001017F0101003FA9
:1014C0004040403F001F2040201F003F4038403F29
:1014D000006314081463000708700807006151498D
:1014E000454300007F41410000552A552A55000020
:1014F00041417F000004020102040040404040409E
:10150000000001020400002054545478007F484435
:10151000443800384444442000384444487F00386C
:101520005454541800087E0901020018A4A4A47C95
:10153000007F080404780000447D4000004080845F
:101540007D00007F102844000000417F4000007CA7
:1015500004180478007C08040478003844444438B3
:1015600000FC242424180018242418FC007C0804FF
:10157000040800485454542000043F444020003CD8
:101580004040207C001C2040201C003C4030403C5F
:10159000004428102844001CA0A0A07C00446454EF
:1015A0004C44141414141414000000000000000033
:1015B0000000000000000000000000F80000000033
:1015C000000000333000000000100C06100C060074
:1015D000000000000000000040C07840C0784000DB
:1015E000043F04043F040400007088FC083000003D
:1015F000001820FF211E0000F008F000E018000095
:1016000000211C031E211E0000F00888700000004D
:101610001E2123241927211010160E00000000009F
:101620000000000000000000000000E018040200BC
:10163000000000071820400000020418E00000002D
:101640000040201807000000404080F0804040002B
:101650000202010F01020200000000F00000000081
:101660000101011F01010100000000000000000055
:1016700080B07000000000000000000000000000CA
:101680000001010101010101000000000000000053
:1016900000303000000000000000000080601804EE
:1016A000006018060100000000E010080810E000CB
:1016B000000F102020100F00001010F80000000094
:1016C0000020203F202000000070080808887000DB
:1016D000003028242221300000300888884830005B
:1016E0000018202020110E000000C02010F800007B
:1016F00000070424243F240000F808888808080014
:101700000019212020110E0000E010888818000028
:10171000000F112020110E0000380808C8380800FA
:101720000000003F0000000000708808088870007A
:10173000001C222121221C0000E010080810E000FB
:101740000000312222110F00000000C0C000000084
:1017500000000030300000000000008000000000A9
:1017600000008060000000000000804020100800A1
:10177000000102040810200040404040404040006A
:101780000404040404040400000810204080000045
:101790000020100804020100007048080808F0004A
:1017A0000000003036010000C030C828E810E0001A
:1017B0000718272423140B000000C038E0000000A5
:1017C000203C23020227382008F88888887000000F
:1017D000203F202020110E00C030080808083800E3
:1017E000071820202010080008F808080810E0005A
:1017F000203F202020100F0008F88888E8081000FB
:10180000203F20202320180008F88888E8081000CE
:10181000203F200003000000C03008080838000006
:1018200007182020221E020008F808000008F80807
:10183000203F210101213F20000808F8080800008E
:101840000020203F2020000000000808F8080800C1
:10185000C08080807F00000008F888C02818080039
:10186000203F20012638200008F808000000000072
:10187000203F20202020300008F8F800F8F8080069
:10188000203F003F003F200008F830C00008F80863
:10189000203F200007183F00E01008080810E00073
:1018A0000F10202020100F0008F808080808F0008A
:1018B000203F210101010000E01008080810E000AD
:1018C0000F18242438504F0008F888888888700042
:1018D000203F2000030C30200070880808083800E2
:1018E0000038202121221C00180808F808081800D8
:1018F0000000203F2000000008F808000008F80859
:10190000001F202020201F000878880000C8380809
:10191000000007380E010000F80800F80008F80081
:10192000033C0700073C030008186880806818081B
:1019300020302C03032C30200838C800C838080099
:101940000000203F2000000010080808C8380800E8
:101950002038262120201800000000FE020202008C
:101960000000007F40404000000C30C0000000003C
:10197000000000010638C00000020202FE00000064
:10198000004040407F00000000000402020204000A
:101990000000000000000000000000000000000047
:1019A000808080808080808000020204000000002F
:1019B0000000000000000000000080808080000027
:1019C0000019242222223F2008F800808000000015
:1019D000003F112020110E000000008080800000D8
:1019E000000E112020201100000000808088F800E7
:1019F000000E112020103F20000080808080000019
:101A0000001F222222221300008080F0888888187C
:101A10000020203F20200000000080808080800087
:101A2000006B94949493600008F80080808000001C
:101A3000203F210000203F200080989800000000F7
:101A40000020203F20200000000000809898000027
:101A500000C08080807F000008F800008080800047
:101A6000203F24022D302000000808F8000000006C
:101A70000020203F20200000808080808080800027
:101A8000203F20003F20003F8080008080800000B9
:101A9000203F210000203F20000080808080000047
:101AA000001F202020201F00808000808000000078
:101AB00080FFA12020110E000000008080808000A7
:101AC000000E112020A0FF80808080008080800098
:101AD00020203F21200001000000808080808000C5
:101AE0000033242424241900008080E0808000003A
:101AF0000000001F20200000808000000080800087
:101B0000001F202020103F208080800000808080E7
:101B100000010E3008060100808000800080808077
:101B20000F300C030C300F0000808000808080009C
:101B30000020312E0E3120008080800000808080C7
:101B400080818E7018060100008080808080800077
:101B50000021302C2221300000000000807C020295
:101B600000000000003F404000000000FF000000B7
:101B700000000000FF0000000002027C8000000066
:101B80000040403F00000000000601010202040482
:101B90000000000000000000B81B0008000000204A
:101BA00034000000680A0008EC1B00083400002024
:101BB000EC070000780A00086C80000702090F801B
:101BC0008182838485868788898A8B8C8D8E8F001D
:101BD00000000000000001020304010203040607E4
:0C1BE000080902040608000000000000D4
:0400000508000131BD
:00000001FF
