:03000000020EB439
:0C0EB400787FE4F6D8FD758177020EFB14
:10067100554449534B20494E00544620494E0050A1
:100681004320494E00554449534B204F5554005483
:1006910046204F5554005043204F55540045525267
:1006A1004F5220434D4400515545525920544F5407
:1006B100414C204E554D20004D4F4420494E205372
:1006C1004C4545502020005741495420524554552E
:1006D100524E202E2E2E2E004445564943453A2097
:1006E100202020202020202000544F54414C204E17
:1006F100554D3A20202020202000554449534B00DD
:10070100544600464C4153480051554552592043E7
:100711005552204E554D202020004D4F4420494E2A
:1007210020534C454550200043555220554D3A2009
:10073100202020202020202020202000515545521B
:10074100592043555220564F4C20202000564F4CE3
:100751003A20202020202020202020202000515538
:100761004552592043555220455120202020005107
:100771005545525920504C4159204D4F4445200078
:100781004D4F4420494E20534C45455020202000D8
:1007910052454356204D4F444C204F4B20202020A2
:1007A100004F4E4C494E45204445563A20202020CA
:1007B1002000504C4159204445564943452053455A
:1007C1005400455120534554004D555349435F5002
:1007D1004C4159004D555349435F504155534500D4
:1007E1004E4558542046494C4520504C41590050E3
:1007F1005245562046494C4520504C415900414CE8
:100801004C20504C4159204F4E20202000414C4C4F
:1008110020504C4159204F46460043555220564FD7
:100821004C5B20205D0053454E44204F4E45204EE9
:10083100554D200053454E44204C4F4F50204E55AE
:100841004D2000464F4C442046494C4520504F49CD
:100851004E5400504F494E54204F4E4520202020E9
:10086100202000504F494E54204C4F4F5020202003
:10087100202000504F494E5420464F4C44455220B1
:100881002020004E4F204E4545442041434B004E11
:100891004545442041434B0052455455524E204555
:1008A10052524F52202020200042555359202020DF
:1008B1002000534C454550202020200052454356EE
:1008C100204552524F522020200053554D20455271
:1008D100524F522020202000464F4C204F56455267
:1008E1002020202020004E4F2046494E44204649DA
:1008F1004C452000494E505554204E554D3A5B0011
:100901005D00464F4C44204E554D5B20205D004616
:10091100494C45204E554D5B2020205D00EDDDBD4D
:100921007DEBDBBB7BE7D7B7770001020304053D15
:100931003C131411121C1617FF202A2C2E303237AB
:1009410036FFFFFFFFFFFFFFFFFFFFFFFFFFFFFF7F
:09095100FFFFFFFFFFFFFFFFFFA6
:100D8200014DFF014B00012E00013B00013100012A
:100D92003A00014F00015000014E05015400014587
:100DA20000015100012B00013500014C00013D0002
:100DB200012D0001480001420001320002430000FF
:100DC200024900000238000002520000023E000008
:100DD200022F000002400000023300000123FF0145
:050DE20026FF012900BD
:03001F008F4D22E0
:10000E00854D21E54DF46006754DFFAF21227FFF32
:01001E0022BF
:10186200EF75F00CA4242AF582E43409F583E582AD
:0E1872002DF582E43583F583E493FF02001F19
:1016AF0075900FE590540FFF640F60227590F0E571
:1016BF00904FF522E4FF90091EEFC3940D500CE4F8
:1016CF0093B522038F22220FA380EE7FFF227FFF8D
:0116DF0022E8
:1018CD00E5246F6007E4F5258F2480090525E525BE
:0718DD00B404028F23AF23C6
:0118E40022E1
:101500001216AF1218CDAD26EFB5261BF4603305C9
:1015100027E527B44B047E018023E527645A702217
:101520007E0275274B80168F26E527C3944B500902
:10153000BFFF06E4F527FE8004E4F52722AF06127C
:0215400018622F
:011542002286
:1000260012000E8F28E528120BA506630006630151
:100036000663020663030663040663050663060693
:10004600630706630806630905870F053711053B35
:100056001204921304B214045C16047B17042F1CBA
:10006600040020016C2600C62803D42901832A0136
:10007600D72B023B2C02952D02FB2E03242F034780
:1000860030038131038A3203C63301703400BE3532
:10009600063B3605823B05F93C04D13D051C3E0571
:1000A6002A3F00CC4000E741010242011D430136D0
:1000B60044014F4500000670AF311212C202065FBE
:1000C6001218040211957F0112196B7BFF7A0679CB
:1000D60071E4FD7F011215C9754C01433D0102060D
:1000E6005F7F0112196B7BFF7A06797AE4FD7F0147
:1000F6001215C9754C02433D0202065F7F011219B3
:100106006B7BFF7A067980E4FD7F011215C9754C79
:1001160003433D0402065F7F0112196B7BFF7A06DB
:100126007986E4FD7F011215C9533DFEE4FF803058
:100136007F0112196B7BFF7A067990E4FD7F01122D
:1001460015C9533DFD7F0180177F0112196B7BFF97
:100156007A067997E4FD7F011215C9533DFB7F02AC
:1001660012164002065F752D062212195B7BFF7A76
:1001760006799EE4FD7F011215C902065F12195B1E
:100186007BFF7A0679A8E4FDFF1215C9E54CB40594
:100196000C12195B7BFF7A0679B902028BE54CB427
:1001A6000109E4FBFAAD3A7F47801AE54CB402092F
:1001B600E4FBFAAD3A7F48800CE54CB4040AE4FB54
:1001C600FAAD3A7F491217967BFF7A0679C8020282
:1001D6008BE4F55412195B7BFF7A0679D9E4FDFFAF
:1001E6001215C97BFF7A0679EAE4FD7F011215C96B
:1001F600E54CB4010E854943854A447BFF7A06796E
:10020600FB8024E54CB4020E8538438539447BFFD8
:100216007A0779018011E54CB4041385524385535E
:10022600447BFF7A0779047D08E4FF1215C9AF44C1
:10023600AE430202F612195B7BFF7A07790AE4FDE8
:10024600FF1215C9E54CB4050B12195B7BFF7A0743
:10025600791B8031E54CB40109E4FBFAAD3A7F4BDA
:10026600801AE54CB40209E4FBFAAD3A7F4C800CE7
:10027600E54CB4040AE4FBFAAD3A7F4D1217967BBF
:10028600FF7A0679C8E4FD7F011215C90203C2E4AC
:10029600F55412195B7BFF7A0679D9E4FDFF121536
:1002A600C97BFF7A077929E4FD7F011215C9E54C60
:1002B600B4010E852F3E85303F7BFF7A0679FB80A1
:1002C60024E54CB4020E85403E85413F7BFF7A070C
:1002D60079018011E54CB4041385333E85343F7BA8
:1002E600FF7A0779047D08E4FF1215C9AF3FAE3ED9
:1002F600121050804112195B7BFF7A07793DE4FDAD
:10030600FF1215C97BFF7A0679C8E4FD7F01121535
:10031600C9E4FBFAAD3A7F431217960203C2E4F52D
:100326005412195B7BFF7A07794EE4FD7F011215A3
:10033600C9AF481217E27B007A0079587D0B020498
:100346007312195B7BFF7A07795FE4FDFF1215C90B
:10035600E54C7BFFB4050D7A07791BE4FD7F01129E
:1003660015C980157A0679C8E4FD7F011215C9E41E
:10037600FBFAAD3A7F441217968041E4F554121900
:100386005B02045412195B7BFF7A077970E4FDFF68
:100396001215C9E54C7BFFB4050D7A077981E4FD9A
:1003A6007F011215C980157A0679C8E4FD7F01120E
:1003B60015C9E4FBFAAD3A7F451217967554142217
:1003C600E4F55412195BAF3512160302065F1219D3
:1003D6005B7BFF7A077991E4FDFF1215C97BFF7AF3
:1003E6000779A2E4FD7F011215C9AF3D121420AFB3
:1003F6003D12176B754F0202065F12195B7BFF7A7F
:100406000779B3E4FDFF1215C9054CE54CB40603A4
:10041600754C01AF4C12112DAF4C12146FE54CFB0D
:100426007A00AD3A7F0902052412195B7BFF7A0731
:1004360079C3E4FDFF1215C9052BE52BB40503E4CA
:10044600F52BE52BFB7A00AD3A7F07121796AF2BFB
:1004560012131F02065FE4FBFAAD3A7F0D121796E0
:100466007F0112196B7BFF7A0779CAE4FD7F0112BF
:1004760015C902065FE4FBFAAD3A7F0E1217967FA6
:100486000112196B7BFF7A0779D58035E548D3943D
:100496000040021548E4FBFAAD3A7F011217967F39
:1004A6000112196B7BFF7A0779E18015E4FBFAAD3F
:1004B6003A7F021217967F0112196B7BFF7A077932
:1004C600F0E4FD7F011215C902065FAF69EFC413A0
:1004D60013540320E0047F0180027F00EF5401C41F
:1004E600333354C0FFE56954BF4FF5697F011219D4
:1004F6006BE5697BFF30E60F7A0779FFE4FD7F0144
:100506001215C97F3E80777A08790EE4FD7F0112C5
:1005160015C97F3F80687B017A00AD3A7F111217BB
:100526009602065FE4FBFAAD3A7F111217960206B1
:100536005F054805481548E548B4FF05E4F54880D9
:100546000AE548D3941E400375481EE548FB7A0029
:10055600AD3A7F061217967F0112196B7BFF7A0858
:10056600791BE4FD7F011215C9754514AF481217B2
:10057600E27B007A0079587D080206367F0F02007A
:100586001F12195BE54CB405087BFF7A07791B80BF
:1005960054E532B40113AB37AA36AD3A7F031217CE
:1005A600967BFF7A087927803CE532B40213AB3795
:1005B600AA36AD3A7F081217967BFF7A08793580FE
:1005C60024E53264037025E52EF536E53BF537E480
:1005D600F53BF52EAB37AA36AD3A7F0F1217967B51
:1005E600FF7A087944E4FD7F011215C9E4F536F572
:1005F6003780660532E532B4040375320175451459
:100606007F0112196BE532B4010A7BFF7A0879542F
:10061600E4FD801CE532B4020A7BFF7A087964E4C3
:10062600FD800DE532640370417BFF7A087974FD25
:100636007F010215C97F0112196BE53A600BE4F5DB
:100646003A7BFF7A087984800A753A017BFF7A083B
:100656007990E4FD7F011215C975451422E532AF84
:0A06660028B40303020FC91212604A
:010670002267
:1012C2008F6A12195B7BFF7A087999E4FDFF121588
:1012D200C9E56A24FE601814601D14602214602798
:1012E20014602C240570357BFF7A0879AA80267B4E
:1012F200FF7A0879B3801E7BFF7A0879BD80167B5E
:10130200FF7A0879CB800E7BFF7A0879D980067B39
:0D131200FF7A0879E7E4FD7F011215C9227A
:101260008F6AE54B70057F0112196B754B1EE4F513
:10127000457BFF7A0879F5FD7F011215C97BFF7A5E
:101280000979017D0F7F011215C9AE36AF377C0099
:101290007D0A120B0DEF256AF537EC3EF536D3E5E6
:1012A0003794CFE53694074005E4F536F537AF3788
:1012B000AE361210507B007A0079587D0B7F010208
:0212C00015C94E
:020FC9008F6A2D
:100FCB00E54B701F75290512195B7BFF7A097903B5
:100FDB00E4FDFF1215C97BFF7A097910E4FD7F014F
:100FEB001215C9754B1EE4F545E529D3940340252D
:100FFB00E52E75F00AA4256AF52EE53BD3946340E4
:10100B0003E4F53BAF2E1217E27B007A0079587D93
:10101B0009E4FF8023E53B75F00AA4256AF53BD371
:10102B0094FF4003E4F53BAF3B7E001213787B004B
:10103B007A0079587D097F011215C9D52906E4F587
:04104B0029754B0AAE
:01104F00227E
:10158600E54624FE601014601014600F14601E24DB
:1015960004702BC2B722D2B722800C052AE52AD3C3
:1015A6009404401AE4F52AA2B7B392B722052AE5B5
:0E15B6002AD394044006E4F52AC2B722D2B725
:0115C4002204
:1010C300E52D6008D52D057F1612001FE547600644
:1010D300D54703E4F53CE5516006D5510375460257
:1010E300E54B6008D54B057F3B12001FE5456014B7
:1010F300D54511E54FB401028005E54FB402057FE4
:101103002812001FE52C600DD52C0AE53A60067500
:101113005106754603E5546010D5540DE54C700433
:0A112300754501227F3412001F22DF
:1016E0007F017E007D007C001218FD7F017E007D61
:1016F000007C00120F40121710121195E56930E4BA
:101700000E12189B12182412184312198080ED2211
:100DE7000B5D303132333435363738390001550031
:060DF70001560001570047
:1018FD008F778E768D758C74787474FF120B87ECE0
:06190D004D4E4F70F32265
:080F40008F6E8E6D8D6C8C6BC1
:100F4800E4F572F571F570F56FF576F575F574F5EC
:100F58007375726EF571F570F56FE4FFFEFDFCAB0D
:100F680072AA71A970A86FD3120B744053856E765C
:100F7800856D75856C74856B73E4FFFEFDFCAB763F
:100F8800AA75A974A873D3120B74401AE57624FFC6
:100F9800F576E57534FFF575E57434FFF574E5739A
:100FA80034FFF57380D3E57224FFF572E57134FFE1
:100FB800F571E57034FFF570E56F34FFF56F809AD1
:010FC8002206
:10192900EF75F00A84745D25F0F8E6F558E4F55989
:01193900228B
:1017E200EF75F06484E5F075F00A84245DF8E6F59F
:1017F20058EF75F00A84745D25F0F8E6F559E4F5C2
:021802005A2268
:10137800AB07AA067C037DE8120B1F7E007F64CFB3
:10138800CDCFCECCCE120B1F745D2FF8E6F5587C6E
:10139800007D64AF03AE02120B1F7E007F0ACFCD23
:1013A800CFCECCCE120B1F745D2FF8E6F559AE02E6
:1013B800AF037C007D0A120B1F745D2DF8E6F55A09
:0413C800E4F55B22CB
:10105000AB07AA067C277D10120B1F7E037FE8CF0B
:10106000CDCFCECCCE120B1F745D2FF8E6F5587C99
:10107000037DE8AF03AE02120B1F7E007F64CFCD6D
:10108000CFCECCCE120B1F745D2FF8E6F5597C0045
:101090007D64AF03AE02120B1F7E007F0ACFCDCF5F
:1010A000CECCCE120B1F745D2FF8E6F55AAE02AF10
:1010B000037C007D0A120B1F745D2DF8E6F55BE4DE
:0310C000F55C22BA
:10189B00E56830E0135368FE1200260555E555B494
:0818AB000506E4F5554368024F
:0118B3002212
:10182400E56830E1195368FD1215001217BD120E58
:0E1834001C0556E556B40A06E4F55643680452
:011842002283
:10184300E56830E2195368FB43E140121586121034
:0E185300C30557E557B40506E4F5574368088A
:011861002264
:09198000E56830E3035368F72227
:10194B00438901D2AFD2A9D28C758CF8758AF82253
:10191300758920759850E4F587758DFD758BFDD21B
:061923008ED29CD2AC2222
:1017100012191312194B121804E4FF121929E4FFCD
:101720001217E2E4FFFE121378E4FFFE121050439A
:0F173000690875320175481E754F0275451E22F6
:101804005368FE5368FD5368FB5368F75368EF53FE
:1018140068BF436910E4F545F551F5467546022263
:03000B0002197661
:0A197600758CF8758AF84368013299
:10193A0030313233343536373839414243444546FB
:01194A00009C
:100DFD000A0A000000000000000000000A140000B4
:0E0E0D000000000000000000010900010800C4
:080003008F993099FDC299228A
:02154300AE07F1
:10154500C201E4FDA2AC9201C2ACC2997F7E120039
:1015550003EDC39E500C740A2DF8E6FF1200030D2F
:1015650080EF7FEF120003A20192AC3000094368BF
:10157500208E09857350225368DFE4F509754E0105
:011585002243
:03002300020CD2FA
:0F0CD200C0E0C083C082C0D075D000C000C00792
:100CE100209803020D75C298AF99E56930E003437E
:100CF1006902E53CB40A00507B900D01F828287385
:100D0100020D1F020D2C020D33020D3A020D41029C
:100D11000D48020D4F020D56020D5D020D64BF7E9E
:100D21000875470A753C01804B80468F14753C025B
:100D310080428F15753C03803B8F16753C048034CF
:100D41008F17753C05802D8F18753C0680268F19ED
:100D5100753C07801F8F1A753C0880188F1B753CE6
:100D6100098011BFEF08754700436810800343688D
:040D710080753C004D
:0D0D7500D007D000D0D0D082D083D0E032A3
:1017BD00E56930E21FE56830E51A054EE54ED39434
:1017CD00024007754E015368DF22D200757319AFC1
:0517DD00081215432273
:100E1C00E4F56EF56FF570F571E56830E70F536822
:100E2C007FE4F53C7B01FAFD7F40021796E56830C4
:100E3C00E4755368EF756B00756C00756D14E4F513
:100E4C006AAB6BAA6CA96D900001120ABEFFE56A31
:100E5C00C39F5016856A82758300120ABE256FF5F2
:100E6C006FE4356EF56E056A80D77E00E9256AF968
:100E7C00EE3AFA900001120ABEFDAB6BAA6CA96D9A
:100E8C00856A82758300120ABEF570EDF571256FC7
:100E9C00F56FE570356EF56E456F700512095A8069
:070EAC0003436880E4F53CFC
:010EB300221C
:10095A00E4F572F573900004120ABEFF90000512C6
:10096A000ABEF574EFF572E574F573900002120A87
:10097A00BEFF900003120ABEF575EF24C6B4140038
:10098A004003020AA490099D75F003A4C58325F0CB
:10099A00C583730209E3020A05020A26020A300223
:1009AA000A3A020A44020A4B0209D9020AA4020AB2
:1009BA0052020A59020A60020AA4020A67020A716A
:1009CA00020A7B020AA4020A85020A8F020A99E431
:1009DA00F52C75510675460122E574B401057F4070
:1009EA00020AA1E574B402057F41020AA1E5746412
:1009FA00046003020AA47F42020AA1E574B4010555
:100A0A007F43020AA1E574B402057F44020AA1E504
:100A1A007464046003020AA47F45807BE54C640188
:100A2A0070787F278071E54C6402706E7F2780673B
:100A3A00E54C640470647F27805D85743D7F29805E
:100A4A00568574317F35804F8574487F2F8048855D
:100A5A00742B7F3180418574357F33803A857249A2
:100A6A0085734A7F2B80308572388573397F2B8056
:100A7A00268572528573537F2B801C85722F85734E
:100A8A00307F2D80128572408573417F2D800885C5
:0A0A9A0072338573347F2D12001FA4
:010AA400222F
:10179600750AFF750B068F0C8D0D8A0E8B0F7B005D
:1017A6007A00790A7D061213CCD20075731E7F0863
:0717B600121543752C0322FC
:0613CC008B728A73897424
:1013D200E4F575F576FCECC39D501AAB72AA73A9BD
:1013E200748C82758300120ABE2576F576E4357513
:1013F200F5750C80E1C3E49576F576E49575F5759F
:10140200AB72AA73A9748C82758300120AEBEC7C0E
:0E1412000029F9EC3AFA900001E576020AEBA7
:100BCB00202020202020202020202020202020201A
:100BDB0000550054005000460053004E0041434B5B
:100BEB00004E41434B004F4E4520004C4F4F5000A1
:100BFB00464F4C4400504C4159443A554449534B91
:100C0B0000504C4159443A54464341524400504CD5
:100C1B004159443A504300504C4159443A464C4197
:100C2B00534800504C4159443A534C4545500050A1
:100C3B004C41594D3A414C4C5F3000504C41594D51
:100C4B003A464F4C4445525F3100504C41594D3A56
:100C5B004F4E455F3200504C41594D3A52414E4434
:100C6B004F4D5F330045513A4E4F524D414C5F3023
:100C7B000045513A504F505F310045513A524F4366
:100C8B004B5F320045513A4A415A5A5F3300455146
:100C9B003A434C41535349435F340045513A424127
:100CAB0053535F350051594D7846532D2D2D2D2D16
:100CBB002D2D2D2D2D00504C41593A202020202038
:070CCB002020202020200062
:1018B400C2A6D2A5D2A77F057E007D007C001218A7
:0818C400FDE5805480FFC2A77E
:0118CC0022F9
:101678008F731218B4EF70FAC2A6C2A5C2A77F056D
:101688007E007D007C001218FD8573807F057E003A
:101698007D007C001218FDD2A77F057E007D007CAE
:0716A800001218FDC2A72289
:10173F008F731218B4EF70FAD2A6C2A5C2A7857321
:10174F00807F057E007D007C001218FDD2A77F05EB
:0C175F007E007D007C001218FDC2A72255
:07198900EF4480FF02167815
:10195B007F011216787F017E007D007C00020F4014
:0B196B007BFF7A0B79CBE4FD0215C96D
:1018E5008D718B72EF6007E5714440FF8002AF7127
:0818F500121989AF7202173FBE
:101880008D6A8B6BEF6007E56A4440FF8002AF6AA8
:0B189000121989E56B2430FF02173F9E
:0415C5007BFF7F0128
:1015C9008F6C8D6D8B6E8A6F8970E56CD394015029
:1015D90028E56D940F5022AB6EAA6FA970120AA567
:1015E900FB6016AD6DAF6C1218E574012570F570CE
:0A15F900E4356FF56F056D80DE220A
:1014B800EF24FE601514601A14601F1460242404BD
:1014C80070287BFF7A0B79DC80267BFF7A0B79DE2C
:1014D800801E7BFF7A0B79E080167BFF7A0B79E21E
:1014E800800E7BFF7A0B79E480067BFF7A0B79E626
:0814F8007D09E4FF1215C92271
:1011FD00AF4C1214B8E53A7BFF60087A0B79E87DA5
:10120D000D80067A0B79EC7D0CE4FF1215C9E532E1
:10121D00B401087BFF7A0B79F18018E532B402082E
:10122D007BFF7A0B79F6800BE532B4030D7BFF7AE9
:10123D000B79FB7D057F011215C9E5697BFF30E553
:10124D00067A0B79E280047A0B79E67D07E4FF12CA
:03125D0015C9228E
:10146F008F6AE56AB401087BFF7A0C79008032E558
:10147F006AB402087BFF7A0C790C8025E56AB40305
:10148F00087BFF7A0C79198018E56AB404087BFF92
:10149F007A0C7922800BE56AB4050D7BFF7A0C7903
:0914AF002EE4FD7F011215C92293
:101603008F6AE56A70087BFF7A0C793A8028E56A6D
:10161300B401097BFF7A0C7946E4801AE56AB402C7
:10162300097BFF7A0C7955E4800CE56AB4030D7BE2
:0D163300FF7A0C7961E4FD7F011215C922D8
:10131F008F6AE56A70087BFF7A0C79708044E56A02
:10132F00B401097BFF7A0C797CE48036E56AB4025C
:10133F00097BFF7A0C7985E48028E56AB403097B81
:10134F00FF7A0C798FE4801AE56AB404097BFF7A7F
:10135F000C7999E4800CE56AB4050D7BFF7A0C7962
:09136F00A6E4FD7F011215C9225C
:021420008F6AD1
:10142200E56A5401F56B60097A0B79DC7D0C1215C3
:10143200C5E56A5402F56B60097A0B79DE7D0D12FF
:1014420015C5E56A5404F56B600D7BFF7A0B79E0F4
:101452007D0E7F011215C9E56A5408F56B600D7B9C
:0C146200FF7A0B79E27D0F7F011215C9A3
:01146E00225B
:10176B00EF7004754C0522EF54016004754C012297
:10177B00EF54026004754C0222EF54046004754C64
:0A178B000322EF54086003754C04BC
:011795002231
:10164000EF7010E53D30E104754C0222E53D30E3DA
:1016500023801DBF0112E53D30E004754C0122E5F9
:101660003D30E302800A800CBF020CE53D30E3040C
:08167000754C0422754C0522A3
:10112D00AB07EB6401701FE53D5401FFEF7017E550
:10113D003D30E105754C02800DE53D30E305754C04
:10114D00048003754C05EB64027018E53D5402FFF5
:10115D00EF7034E53D30E004754C0122E53D30E3A0
:10116D00238010BB0313E53D5404FFEF7019E53DDB
:10117D0030E304754C0422800BBB040BE53D540891
:08118D00FFEF7003754C052211
:101195007F381216787F017E007D007C00120F409B
:1011A5007F0C1216787F017E007D007C00120F40B7
:1011B5007F061216787F017E007D007C00120F40AD
:1011C5007F011216787F017E007D007C00120F40A2
:1011D500E4FBFDFF1218807BFF7A0C79B0E4FDFF7C
:1011E5001215C97BFF7A0C79C1E4FD7F011215C97F
:0811F5001211FDAF3D021420B0
:100EC0000216E0E493A3F8E493A34003F68001F252
:100ED00008DFF48029E493A3F85407240CC8C33333
:100EE000C4540F4420C8834004F456800146F6DF02
:100EF000E4800B0102040810204080900D82E47E03
:100F0000019360BCA3FF543F30E509541FFEE493F6
:100F1000A360010ECF54C025E060A840B8E493A3BD
:100F2000FAE493A3F8E493A3C8C582C8CAC583CAE8
:100F3000F0A3C8C582C8CAC583CADFE9DEE780BEA0
:010E1B0000D6
:100AA500BB010689828A83E0225002E722BBFE024F
:090AB500E32289828A83E4932282
:100ABE00BB010CE58229F582E5833AF583E02250ED
:100ACE0006E92582F8E622BBFE06E92582F8E22237
:0D0ADE00E58229F582E5833AF583E4932251
:100AEB00F8BB010DE58229F582E5833AF583E8F041
:100AFB00225006E92582C8F622BBFE05E92582C8ED
:020B0B00F222D4
:100B0D00EF8DF0A4A8F0CF8CF0A428CE8DF0A42EFC
:020B1D00FE22B6
:100B1F00BC000BBE0029EF8DF084FFADF022E4CCBA
:100B2F00F875F008EF2FFFEE33FEEC33FCEE9DEC83
:100B3F00984005FCEE9DFE0FD5F0E9E4CEFD22EDC9
:100B4F00F8F5F0EE8420D21CFEADF075F008EF2F13
:100B5F00FFED33FD4007985006D5F0F222C398FD04
:050B6F000FD5F0EA22A1
:100B7400EB9FF5F0EA9E42F0E99D42F0E89C45F0D7
:010B8400224E
:100B85007401FF3395E0FEFDFC080808E6CF2FF65B
:100B950018E6CE3EF618E6CD3DF618E6CC3CF62234
:100BA500D083D082F8E4937012740193700DA3A3DF
:100BB50093F8740193F5828883E4737402936860F3
:060BC500EFA3A3A380DFF3
:00000001FF
