:020000040800F2
:10000000D80B0020D5010008910700083D07000823
:100010008D070008B5050008471000080000000023
:10002000000000000000000000000000EF0A0008CF
:10003000B9050008000000003D080008910C000808
:10004000EF010008EF010008EF010008EF010008D0
:10005000EF010008EF010008EF010008EF010008C0
:10006000EF010008EF010008EF010008EF010008B0
:10007000EF010008EF010008EF010008EF010008A0
:10008000EF010008EF010008EF010008EF01000890
:10009000EF010008EF010008EF010008EF01000880
:1000A000EF010008EF010008EF010008EF01000870
:1000B000EF010008EF010008EF010008EF01000860
:1000C000EF010008EF010008EF010008EF01000850
:1000D000EF010008F50C0008150E0008EF010008FC
:1000E000EF010008EF010008EF010008EF01000830
:1000F000EF010008EF010008EF010008EF01000820
:10010000EF010008EF010008EF010008EF0100080F
:10011000EF010008EF010008EF010008EF010008FF
:10012000EF010008EF010008EF010008EF010008EF
:1001300000F002F800F03FF80AA090E8000C8244BA
:100140008344AAF10107DA4501D100F034F8AFF297
:10015000090EBAE80F0013F0010F18BFFB1A43F0A5
:10016000010318474817000068170000103A24BF21
:1001700078C878C1FAD8520724BF30C830C144BF0C
:1001800004680C607047000000230024002500264E
:10019000103A28BF78C1FBD8520728BF30C148BFEA
:1001A0000B607047642900F08B80002070471FB5FA
:1001B0001FBD10B510BD00F0CAF91146FFF7F7FFDB
:1001C00001F092F800F0E8F903B4FFF7F2FF03BC86
:1001D00000F060FF0948804709480047FEE7FEE756
:1001E000FEE7FEE7FEE7FEE7FEE7FEE7FEE7FEE7E7
:1001F00004480549054A064B70470000950C000865
:1002000031010008D8050020D80B0020D8070020B5
:10021000D8070020704700000FB4044910B503AAA6
:10022000029800F057F910BC5DF814FB4400002060
:100230000FB41CB5074B06AA7B446946009005988D
:1002400000F02FF90020694600F03EF91CBC5DF873
:1002500014FB00008D0200002DE9F0410E4604461B
:10026000002020622046E168884730B3252805D069
:10027000D4E901219047206A401CF2E7E16820465A
:1002800000278847050018D0A5F14100192802D899
:1002900020354FF400673246294620462760FFF795
:1002A00081FF40B1012804D0F61D26F0070608366C
:1002B000D8E7361DD6E72846DAE7206ABDE8F081A0
:1002C0002DE9F0410646002410687529314616A52F
:1002D00010D0AFF30080002802DA404213A507E0F7
:1002E00031688A0701D512A502E0490704D511A596
:1002F000012401E0AFF3008000210A2206F1240767
:1003000009E0B0FBF2FCB0FBF2F302FB1C00303062
:1003100078541846491C0028F3D123462A46304613
:10032000BDE8F04100F05FB8000000002D000000C3
:100330002B0000002000000030B505460B462A4681
:1003400013F8014B12F8010B08B1A042F8D01CB110
:10035000002802D06D1CF1E7284630BD10B5431CC3
:1003600002E010F8011B71B18107FAD14FF00132A0
:1003700002C88C1A8C4314EAC211F9D0C01A0A06BA
:1003800003D0C01E10BDC01A10BD0A0401D0801ECB
:1003900010BD0902FCD0401E10BD4FF00002042920
:1003A000C0F0128010F0030C00F0A880CCF1040C17
:1003B000BCF1020F18BF00F8012BA8BF20F8022BD8
:1003C000A1EB0C0100F09AB85FEAC17C24BF00F8F1
:1003D000012B00F8012B48BF00F8012B7047704734
:1003E0007047704770472DE9F0470D469946924691
:1003F000044600F124080168880604D5E06921F06C
:100400001001216000E00120A84201DD471B00E04F
:100410000027A1697A1902EB0900081AA061207867
:10042000C00602D42046AFF30080002608E0D4E9DD
:1004300001211AF806009047206A401C761C2062B1
:100440004E45F4DB2078C0060AD52046AFF3008085
:1004500006E0D4E9012130209047206A401C206248
:10046000381EA7F10107F4DC07E0D4E9012118F8F0
:1004700005009047206A401C2062281EA5F1010556
:10048000F3DC2046AFF300802078000602D502207E
:10049000BDE8F0870120FBE701694A1C026108788A
:1004A000704700B58FB0CDE90131002105910549B4
:1004B0007944CDE9031011466846FFF7CDFE0FB031
:1004C00000BD0000E5FFFFFF0A6802F8010B0A60AB
:1004D00070470000074B70B50D467B44FFF7E1FF06
:1004E0000446284600F02FF810B14FF0FF3070BDE1
:1004F000204670BD4F0C00004FF0000200B51346BF
:1005000094469646203922BFA0E80C50A0E80C5033
:10051000B1F12001BFF4F7AF090728BFA0E80C50E4
:1005200048BF0CC05DF804EB890028BF40F8042BDD
:1005300008BF704748BF20F8022B11F0804F18BF4A
:1005400000F8012B7047007B00F080007047754673
:1005500000F02CF8AE4605006946534620F007002F
:10056000854618B020B5FFF743FEBDE820404FF0A8
:1005700000064FF000074FF000084FF0000B21F08D
:100580000701AC46ACE8C009ACE8C009ACE8C0095A
:10059000ACE8C0098D46704710B50446AFF3008043
:1005A0002046BDE81040FFF70FBE0000004870472E
:1005B0007405002000BFFEE770472DE9F0410246B8
:1005C00000250026002000230024002791F803C006
:1005D0000CF00F0591F803C00CF0100CBCF1000FEB
:1005E00003D091F802C04CEA050591F800C0BCF1B7
:1005F000000F31D0146800202BE04FF0010C0CFAF2
:1006000000F3B1F800C00CEA03069E4220D183003B
:100610004FF00F0C0CFA03F7BC4305FA03FC4CEA4D
:10062000040491F803C0BCF1280F06D14FF0010C6F
:100630000CFA00FCC2F814C00AE091F803C0BCF147
:10064000480F05D14FF0010C0CFA00FCC2F810C0A5
:10065000401C0828D1D31460B1F800C0BCF1FF0FD2
:1006600034DD546800202EE000F1080C4FF0010842
:1006700008FA0CF3B1F800C00CEA03069E4221D13F
:1006800083004FF00F0C0CFA03F7BC4305FA03FC90
:100690004CEA040491F803C0BCF1280F05D100F125
:1006A000080C08FA0CF8C2F8148091F803C0BCF1E9
:1006B000480F07D100F1080C4FF0010808FA0CF8B8
:1006C000C2F81080401C0828CED35460BDE8F081E9
:1006D000416170470161704702460B46581EC1B226
:1006E00004E0505C00B103E0481EC1B20029F8D11B
:1006F00000BF481CC0B2704730B502460B464FF6EB
:10070000FF700024002112E0555C684000240AE0DC
:1007100000F0010525B14AF2010585EA600000E01C
:100720004010651CECB2082CF2DB4D1CE9B299427A
:10073000EAD300250DB140F0A50030BD00BFFEE7B3
:1007400008B50121482000F08BF82020ADF800000A
:1007500010208DF8030003208DF802006946094837
:10076000FFF72BFF20210748FFF7B4FF2020ADF84B
:10077000000069460448FFF720FF20210248FFF7E8
:10078000A9FF08BD000C01400018014000BFFEE7B2
:10079000704708B54FF4A06000F046F826208DF8A9
:1007A000000001208DF801008DF802008DF8030093
:1007B000684600F001F808BD70B5002100230F2243
:1007C000C47804B3154C246804F4E064C4F5E06410
:1007D000210AC1F10403CA40447804FA03F1847881
:1007E0001440214309010E4C0678A155047804F009
:1007F0001F050124AC4005786D11AD0005F1E02521
:10080000C5F8004109E0047804F01F050124AC405C
:10081000044D0678761145F8264070BD0CED00E0D9
:1008200000E400E080E100E002490143024A116077
:10083000704700000000FA050CED00E07047000072
:1008400029B1064AD2690243044BDA6104E0034A43
:10085000D2698243014BDA61704700000010024008
:1008600029B1064A92690243044B9A6104E0034AA3
:1008700092698243014B9A61704700000010024068
:1008800030B500210022002400232D4D6D6805F0B5
:100890000C0121B1042905D0082923D105E0294DF7
:1008A000056022E0274D05601FE0254D6D6805F4C9
:1008B0007012234D6D6805F48034022505EB9242D9
:1008C0001CB9214D554305600BE01D4D6D6805F4C5
:1008D00000351DB11C4D5543056002E0194D5543CF
:1008E000056002E0174D056000BF00BF144D6D6844
:1008F00005F0F0010909154D6B5C0568DD404560A8
:100900000F4D6D6805F4E061090A104D6B5C456898
:10091000DD4085600A4D6D6805F46051C90A0B4DD4
:100920006B5C4568DD40C560054D6D6805F4404170
:10093000890B074D6B5CC568B5FBF3F5056130BDF0
:100940000010024000127A0000093D004A00002019
:100950005A0000202DE9FC470446884691461F4670
:10096000684600F079FD012848D19DF80000A528CF
:1009700002D00120BDE8FC879DF80100A04201D013
:100980000220F7E707216846FFF7A6FE0546A91EE5
:100990006846FFF7B1FE691E1DF80120A91E1DF86B
:1009A000011042EA0121884201D00320E2E7B8F1B8
:1009B000010F21D101208DF8020000261AE001204C
:1009C000B04000EA0900012802D002280ED106E05A
:1009D0009DF8030004EB44013944887007E09DF85A
:1009E000040004EB44013944487000E000BF00BF3C
:1009F000701CC6B2032EE2DB0020BBE7FF20B9E784
:100A000010B516A11648FFF797FC48B915A1144870
:100A1000FFF792FC20B915A11148FFF78DFC58B1E2
:100A20004FF47A710E48FFF7B8FC012010490870A6
:100A30000020104908700FE00E480078401C0D4956
:100A4000087008460078C82806DB002008704FF4BC
:100A50007A710348FFF7A1FC10BD00004F4B000066
:100A60006000002072656164790000003E000000B3
:100A70003B0000203C00002021B1028842F04002EF
:100A8000028004E002884FF6BF731A40028070476C
:100A9000CA43028170470246002013890B400BB104
:100AA000012000E00020704701468889704781815D
:100AB000704710B50022028802F441520B884C881E
:100AC00023438C882343CC8823430C8923434C89BC
:100AD00023438C892343CC8923431A430280838B8D
:100AE0004FF2FF74234083830B8A038210BD70474B
:100AF00038B5044664210A48FFF74FFCA0780090FF
:100B00006378227807A10648FFF792FB0448FFF7B5
:100B100025FCC5B22A460249064800F0A5FA38BDB0
:100B200048040020505A593A25642C25642C256429
:100B30002E230000004400402DE9FC4104460D46F0
:100B400016460DA103C9CDE900018DF801408DF8CD
:100B500002508DF8036004216846FFF7CDFD07467B
:100B600038128DF80400F8B28DF8050006216846A9
:100B700000F0EAFDBDE8FC81A500000000000000D7
:100B800010B500F001F810BD0CB5002001900090E8
:100B90003348006840F480303149086000BF304875
:100BA000006800F4003000900198401C019000980B
:100BB00018B90198B0F5A06FF1D12948006800F488
:100BC000003010B10120009001E00020009000985A
:100BD000012843D12348006840F0100021490860F3
:100BE0000846006820F0030008600846006840F0EE
:100BF000020008601A484068194948600846406881
:100C000048600846406840F4806048600846406894
:100C100020F47C1048600846406840F4E8104860C2
:100C20000846006840F08070086000BF0C4800680B
:100C300000F000700028F9D00948406820F0030057
:100C4000074948600846406840F00200486000BF1D
:100C50000348406800F00C000828F9D10CBD0000E2
:100C60000010024000200240042808D14FF0E0218B
:100C7000096941F004014FF0E022116107E04FF0F3
:100C8000E021096921F004014FF0E0221161704771
:100C90007047000010B51348006840F0010011498A
:100CA000086008464068104908400E4948600846F8
:100CB00000680E4908400B4908600846006820F4A7
:100CC000802008600846406820F4FE0048604FF429
:100CD0001F008860FFF754FF4FF000600449086070
:100CE00010BD0000001002400000FFF8FFFFF6FEFC
:100CF00008ED00E010B540F225511D4800F0DFF886
:100D000010B31B4800F096F9C4B21A48008800F4EA
:100D10000040C8B91748008800F4804060B10A2C30
:100D200003D000201349088020E01248008840F4D6
:100D300000401049088019E00D2C06D10D480088AC
:100D400040F480400B49088010E00A480088C0F356
:100D50000D0009490C5407480088401C05490880CB
:100D600008460088C72801DD0020088010BD00006B
:100D70000038014048000020AC04002010B586B0C7
:100D8000044601214804FFF75BFD01210420FFF721
:100D900067FD18208DF817000420ADF8140003201B
:100DA0008DF8160005A91948FFF707FC04208DF8F7
:100DB00017000820ADF8140005A91448FFF7FDFB43
:100DC00001940020ADF810000C20ADF80E000020BA
:100DD000ADF80C00ADF80A00ADF8080001A90C4808
:100DE00000F0BCF8FFF7D5FC40F22551084800F0B0
:100DF00035F8012240F22551054800F08AF801211A
:100E0000034800F043F806B010BD000000080140A0
:100E10000044004010B540F225510C4800F04FF856
:100E200090B10A4800F006F9C4B2094809490978A6
:100E3000445409480078012801D1FFF7E1FD40F250
:100E40002551024800F013F810BD00000044004096
:100E5000600000203C0000202000002001F400720F
:100E6000B2F5007F00D100BFCA430280704710B5C1
:100E70000022002340F66A14A14200D100BF0A12EA
:100E800001249440A3B2DC43048010BD21B18289C7
:100E900042F40052828104E082894DF6FF731A40C9
:100EA0008281704702460020B1F5007F00D100BF6B
:100EB00013880B400BB1012000E00020704770B593
:100EC0000246002400230025002040F66A16B142A5
:100ED00000D100BFC1F3421501F01F03012606FA3D
:100EE00003F3012D02D19689334006E0022D02D191
:100EF000168A334001E0968A33400C12012606FA26
:100F000004F41688344013B10CB1012000E0002035
:100F100070BDF0B50346002400260025002040F6F1
:100F20006A17B94200D100BF1846C1F3421401F05C
:100F30001F06012707FA06F5012C01D10C3004E049
:100F4000022C01D1103000E014301AB107682F4391
:100F5000076002E00768AF430760F0BD2DE9F04786
:100F600086B005460E460024A24600BFA1460027D3
:100F7000B08900B100BF2F462C8A4CF6FF700440A8
:100F8000F08804432C82AC894EF6F3100440B088FC
:100F900031890843718908430443AC81AC8A4FF618
:100FA000FF400440B0890443AC8201A8FFF768FC0D
:100FB0001F48874202D1DDF810A001E0DDF80CA047
:100FC000A88900F4004040B10AEBCA0000EB0A1007
:100FD00031684900B0FBF1F807E00AEBCA0000EB0A
:100FE0000A1031688900B0FBF1F86420B8FBF0F01A
:100FF00004012009642101FB1089A88900F4004044
:1010000040B1322000EBC900B0FBF1F000F0070066
:10101000044308E0322000EB09106421B0FBF1F03A
:1010200000F00F0004432C8106B0BDE8F0870000FB
:101030000038014001468888C0F308007047C1F3BA
:1010400008028280704700BFFEE770B504460D4677
:1010500029462046FFF7F3FF00BF80212046FFF717
:1010600021FF0028F9D070BD70B506460C46154624
:1010700006E014F8011B3046FFF7E7FF681EC5B213
:10108000002DF6D100BF40213046FFF70BFF0028AE
:10109000F9D070BD014600BF0020704710B56FF059
:1010A0000400FFF7E1FD0A4800680A49B0FBF1F0CF
:1010B000094908700846007800EB4001C1EBC010F8
:1010C0004FF6FF7101EAC0000449088010BD00001E
:1010D0000C00002000127A003E000020400000209A
:1010E0000146114A12884A434FF0E0235A61002218
:1010F0009A611A46126942F001021A6100BF4FF06C
:10110000E022106900F001021AB100F48032002AD6
:10111000F5D04FF0E022126922F001024FF0E023F7
:101120001A6100229A6170474000002000BF054A02
:10113000128802F04002002AF9D0C2B2014B1B1DF6
:101140001A8070470038014010B586B00446334815
:1011500084420CD03248844208D101210C20FFF790
:101160007FFB01218803FFF76BFB00E000BF2B48EA
:1011700084422DD02A48844229D18015ADF814002C
:1011800010208DF8170003208DF8160005A92548BA
:10119000FFF713FAA1152348FFF79CFA4FF42040FC
:1011A000ADF8140018208DF8170003208DF81600F4
:1011B00005A91D48FFF701FA2014ADF8140004201A
:1011C0008DF8170005A91848FFF7F7F900E000BFF0
:1011D0000020ADF800004FF48270ADF8020000204E
:1011E000ADF80400ADF80600ADF808004FF400704B
:1011F000ADF80A003020ADF80C000020ADF80E006C
:101200000720ADF8100069462046FFF752FC012187
:101210002046FFF731FC06B010BD00000030014051
:101220000038004000080140000C014008B50121D1
:101230000820FFF715FB4FF48050ADF80000102098
:101240008DF8030003208DF8020069462148FFF75E
:10125000B4F94FF480511F48FFF73CFA00F03AF917
:10126000002000F0DAF9802000F0AAF9012000F057
:10127000D4F90021402000F003FB0021412000F0C0
:10128000FFFA00F0EFF91448007800F0FFF9134876
:10129000007800F021FA1248007800F072F901207D
:1012A00000F0C9F90F48007800F05CF9002000F068
:1012B00078F9FF2000F0CFF940F2FF3000F01EFA7D
:1012C000012000F08BF9FF21122000F0D9FA00F084
:1012D000EBF908BD000C014027000020240000208D
:1012E00025000020260000200024FFF7D7FEFFF78E
:1012F00027FA2B48FFF728FF4FF4E13000F070FA8F
:101300004FF4E130FFF73AFDFFF790FF25A0FEF71D
:1013100083FF44E0601CC0B204461E2834DD032273
:1013200001210846FFF708FC214B03220121084652
:10133000FFF710FB4FF47A70FFF7D2FE03E04FF493
:101340007A70FFF7CDFE1A4B032201210846FFF702
:1013500001FB20B12046611CCCB20A28EFDB00243F
:1013600013480079134948701148407908700846BD
:10137000417811A0FEF750FF0E48017814A0FEF747
:101380004BFF0C48FFF7B4FB1748006808B9012071
:1013900000E00020144908601E20FFF7A1FEB9E715
:1013A00000380040696E6974206F6B0D0A00000000
:1013B0000000002006000020446576696365426CE9
:1013C0006F636B2E68756D69203D2025640D0A00E2
:1013D000446576696365426C6F636B2E74656D70EE
:1013E000203D2025640D0A009481214210B5044659
:1013F00000BF02212046FFF74EFB0028F9D0022152
:101400002046FFF745FBFF212046FFF750FB00BFBA
:1014100001212046FFF73FFB0028F9D0012120469B
:10142000FFF736FB2046FFF73FFB10BD70B50446C3
:10143000002000F085F804F07F01064800F05EF817
:101440000448FFF7D3FFC5B2012000F079F8284621
:1014500070BD00000038004070B5054600F024F96A
:101460001220FFF7E3FF00F0400040282ED11E209D
:10147000FFF7DCFF00F00400042821D100210D203B
:1014800000F0FEF91320FFF7D1FF0646002000F020
:1014900057F800210E4800F031F8002405E00C4810
:1014A000FFF7A4FF2855601CC4B2B442F7DB01204B
:1014B00000F046F8FF21122000F0E2F9012070BD93
:1014C000FF21122000F0DCF90020F8E70020F6E709
:1014D0000038004010B54FF480510748FFF7F8F886
:1014E0000A20FFF7FDFD4FF480510348FFF7F2F8A3
:1014F0000A20FFF7F5FD10BD000C014070B5044651
:101500000D4600BF02212046FFF7C5FA0028F9D09A
:1015100002212046FFF7BCFA29462046FFF7C7FA0A
:1015200000BF01212046FFF7B6FA0028F9D00121BB
:101530002046FFF7ADFA2046FFF7B6FA70BD00006F
:1015400010B504462CB14FF480710548FFF7C2F87E
:1015500004E04FF480710248FFF7BAF810BD0000B4
:101560000008014070B504461D20FFF75FFF0546E7
:10157000284664F31F10C5B229461D2000F080F9EB
:1015800070BD70B504461D20FFF750FF054605F0FD
:10159000F10040EA4400C5B229461D2000F070F970
:1015A00070BD70B504461D20FFF740FF054605F0ED
:1015B000FE0040EA040529461D2000F061F970BDD7
:1015C00070B505460120FFF731FF044604F07F04A3
:1015D0002C432146012000F053F970BD70B504463C
:1015E0002620FFF723FF054605F0F70040EAC40078
:1015F000C5B22946262000F043F970BD70B50446F7
:101600003120FFF713FF054605F0F80040EA040516
:101610002946312000F034F970BD70B5054601202F
:10162000FFF704FF044604F0F8042C432146012090
:1016300000F026F970BD70B504461E20FFF7F6FED7
:10164000054605F0FB0040EA8400C5B229461E208D
:1016500000F016F970BD10B504462146222000F0B6
:101660000FF910BD10B508480178062000F008F900
:1016700005484178072000F003F9034881780820E5
:1016800000F0FEF810BD00002100002010B5044657
:1016900087214D2000F0F4F80248015D092000F098
:1016A000EFF810BD2800002010B50120FFF7B5FFAE
:1016B0009F21112000F0E4F8FF21242000F0E0F841
:1016C0000021402000F0DCF80021412000F0D8F893
:1016D0000520FFF7A2FF10BD70B504460320FFF7F9
:1016E0008DFF1E20FFF7A2FE0546284664F31F105B
:1016F000C5B229461E2000F0C3F870BD38B50446B7
:101700001E20FFF793FE8DF800001F20FFF78EFECE
:101710008DF801009DF8000000F0FC00032101EAB3
:1017200014210843C0B28DF80000E0B28DF801002A
:101730009DF800101E2000F0A3F89DF801101F2056
:1017400000F09EF838BD000070B504460D4601203B
:10175000FFF763FF0021242000F092F8F721112009
:1017600000F08EF82946222000F08AF800210E2091
:1017700000F086F800210D2000F082F80020FFF72D
:10178000DFFE80211548FFF7B9FE002606E021782C
:101790001248FFF7B3FE641C701CC6B2AE42F6DB03
:1017A0000120FFF7CDFE4021084600F069F8002136
:1017B000412000F065F80320FFF72FFF02E014201E
:1017C000FFF78EFC1220FFF731FE00F0080008281A
:1017D000F5D1FF21122000F053F870BD0038004011
:1017E00010B586B00446012144F20400FFF738F832
:1017F0004FF40070ADF8140003208DF81600182087
:101800008DF8170005A91C48FEF7D7FE4FF480603D
:10181000ADF8140004208DF8170005A91648FEF74E
:10182000CCFE25208DF8000003208DF801008DF8F6
:10183000020001208DF803006846FEF7BDFF019409
:101840000020ADF80800ADF80A00ADF80C00ADF8C6
:1018500010000C20ADF80E0001A90848FFF77EFB30
:10186000012240F225510548FFF753FB01210348AF
:10187000FFF70CFB06B010BD000801400038014026
:1018800070B504460D460020FFF75AFE44F0800173
:101890000548FFF733FE29460348FFF72FFE0120D6
:1018A000FFF74EFE70BD000000380040CC18000865
:1018B00000000020600000006C0100082C190008E6
:1018C00060000020780B0000880100080000000084
:1018D000000000000000000000A24A040000000018
:1018E000000000000102030406070809006C8000E4
:1018F0000702090F808182838485868788898A8B85
:101900008C8D8E8F000000000000000000000000A1
:1019100000000000000000000000010203040102BA
:0C19200003040607080902040608000082
:04000005080001D519
:00000001FF
