:03000000020003F8
:0C000300787FE4F6D8FD75812202004AE7
:10019E000A0A000000000000000000000A1400001F
:0E01AE00000000000000000001090001080030
:0701EF00AE071FEE70FA22BB
:0401D3007FD07E0754
:0F01D7007D6EAC07ECD3940040031C80F7DDF382
:0101E60022F6
:1001BD00758920759850E4F587758DFD758BFDD289
:0601CD008ED29CD2AC2290
:0801E7008F993099FDC29922A5
:02017F00AE07C9
:10018100E4FD7F7E1201E7EDC39E500C740A2DF849
:0D019100E6FF1201E70D80EF7FEF0201E7AE
:06008F008B1E8A1F892070
:10009500E4F521F522FCECC39D501AAB1EAA1FA95D
:1000A500208C827583001200E32522F522E4352198
:1000B500F5210C80E1C3E49522F522E49521F52193
:1000C500AB1EAA1FA9208C82758300120110EC7C3F
:0E00D5000029F9EC3AFA900001E52202011030
:06015B007A00E4FD7F03C1
:10016100750AFF750B068F0C8D0D8A0E8B0F7B00A8
:0E0171007A00790A7D0612008F7F0802017F56
:100132007F011201EF7F017E001201D71201BD1271
:1001420001D37B0212015B1201D37B0112015B120C
:0901520001D37B0612015B80FE63
:10000F00020132E493A3F8E493A34003F68001F2D4
:10001F0008DFF48029E493A3F85407240CC8C333F2
:10002F00C4540F4420C8834004F456800146F6DFC1
:10003F00E4800B010204081020408090019EE47EB2
:10004F00019360BCA3FF543F30E509541FFEE493B6
:10005F00A360010ECF54C025E060A840B8E493A37D
:10006F00FAE493A3F8E493A3C8C582C8CAC583CAA8
:10007F00F0A3C8C582C8CAC583CADFE9DEE780BE60
:0101BC000042
:1000E300BB010CE58229F582E5833AF583E02250D2
:1000F30006E92582F8E622BBFE06E92582F8E2221C
:0D010300E58229F582E5833AF583E4932235
:10011000F8BB010DE58229F582E5833AF583E8F025
:10012000225006E92582C8F622BBFE05E92582C8D1
:02013000F222B9
:00000001FF
