:0C01BC000A080000000000000000000025
:0B01C900EF1FAC0670011E4C70F62208
:1001320020B2187FB87E0B1201C920B20B7B017A64
:1001420002E4FD7F0F12018830B2FD20B3187FB8A0
:100152007E0B1201C920B30B7402FBFAE4FD7F0F80
:0701620012018830B3FD22F9
:0801D4001201A612013280F8AD
:1001A600759850758920E4F587758DFD758BFDD2A0
:0601B600ACD29CD28E22A7
:0801DC008F993099FDC29922B0
:02016900AE07DF
:10016B00E4FD7F7E1201DCEDC39E500C74082DF86C
:0D017B00E6FF1201DC0D80EF7FEF0201DCDA
:06008F008B128A13891494
:10009500E4F515F516FCECC39D501AAB12AA13A98D
:1000A500148C827583001200E32516F516E43515C8
:1000B500F5150C80E1C3E49516F516E49515F515CF
:1000C500AB12AA13A9148C82758300120110EC7C63
:0E00D5000029F9EC3AFA900001E5160201103C
:100188007508FF7509068F0A8D0B8A0C8B0D7B008D
:0E0198007A0079087D0612008F7F0802016947
:03000000020003F8
:0C000300787FE4F6D8FD75811602004AF3
:1000E300BB010CE58229F582E5833AF583E02250D2
:1000F30006E92582F8E622BBFE06E92582F8E2221C
:0D010300E58229F582E5833AF583E4932235
:10011000F8BB010DE58229F582E5833AF583E8F025
:10012000225006E92582C8F622BBFE05E92582C8D1
:02013000F222B9
:10000F000201D4E493A3F8E493A34003F68001F232
:10001F0008DFF48029E493A3F85407240CC8C333F2
:10002F00C4540F4420C8834004F456800146F6DFC1
:10003F00E4800B01020408102040809001BCE47E94
:10004F00019360BCA3FF543F30E509541FFEE493B6
:10005F00A360010ECF54C025E060A840B8E493A37D
:10006F00FAE493A3F8E493A3C8C582C8CAC583CAA8
:10007F00F0A3C8C582C8CAC583CADFE9DEE780BE60
:0101C8000036
:00000001FF
