:100C260030313233343536373839000000000000B1
:100AC7000A19000000000000000000000A0C483A64
:100AD7003336204C3A3130000223002402080063E9
:0B0AE7000225000A020A0000011800AE
:1006BA00120BD07F88120C367F43120C407FC01277
:1006CA000C36E4F528740C2528F8E6FF120C4005D0
:1006DA0028E528C3940940ED7401FBFA02080412C4
:1006EA000BE98E168F1712083E7F1E7E00120B3002
:1006FA001204A9120000120C16AC16AD17EC120265
:10070A0011E4FBFA7980783D12010612024A8E2919
:10071A008F2AC3E52A9524E5236480F8E5296480B5
:10072A0098401D30911A7F8B120C36900C29E49355
:10073A00FF120C40D28C7527FF7B027A0102080453
:10074A00C3E5249526FFE5239525FE7C007D02124C
:10075A000410E5262FFFE5253EFEC3E52A9FEE6439
:10076A0080F8E529648098403ED3E52A9524E5235C
:10077A006480F8E529648098502DC3E52A9526E51A
:10078A00256480F8E529648098401C3091197F8B94
:10079A00120C36900C28E493FF120C40D28C752769
:1007AA00967B037A018053C3E52A9526E525648062
:1007BA00F8E5296480984048E5249526FFE52395C5
:1007CA0025FE7C007D02120410E5262FFFE5253E5A
:1007DA00FED3E52A9FEE6480F8E5296480985020CC
:1007EA0030911D7F8B120C36900C27E493FF120C6C
:1007FA0040D28C75274B7B047A01120B710206E9F1
:10080A00C3E52A9526E5256480F8E52964809840A1
:10081A00063091030206E97F8B120C36900C26E40F
:10082A0093FF120C40C28C7527FFC2907B05120BF6
:04083A006F0206E95A
:100C1600438901758CF4758ADAD28CD2A9D2AF22B7
:100C0000759850758920E4F587758DFD758BFDC24B
:060C1000ACC29CD28E2252
:1004A90030B50302052C7F1E7E00120B3020B5707B
:1004B9000524E52470020523D39509E5086480F82D
:1004C900E5236480987FC24019120C367F2D120CE7
:1004D900407FC3120C367F2D120C407B06120B6F26
:1004E900803E120C36AE23AF247C007D0A12041024
:1004F90074262FF582740C3EF583E493FF120C40A9
:100509007FC3120C36AE23AF247C007D0A1204107F
:1005190074262DF582740C3CF583E493FF120C408C
:1005290030B5FD30B4030205B17F1E7E00120B30D9
:1005390020B472E524152470021523C3E5249526F9
:10054900E5256480F8E5236480987FC25019120C70
:10055900367F2D120C407FC3120C367F2D120C40B2
:100569007B07120B6F803E120C36AE23AF247C0042
:100579007D0A12041074262FF582740C3EF583E46B
:1005890093FF120C407FC3120C36AE23AF247C00BC
:100599007D0A12041074262DF582740C3CF583E44F
:1005A90093FF120C4030B4FD30B2030206347F1EB3
:1005B9007E00120B3020B2700526E5267002052553
:1005C900D39524E5236480F8E5256480987FC740A6
:1005D90019120C367F2D120C407FC8120C367F2D54
:1005E900120C407B08120B6F803E120C36AE25AF01
:1005F900267C007D0A12041074262FF582740C3EA5
:10060900F583E493FF120C407FC8120C36AE25AF78
:10061900267C007D0A12041074262DF582740C3C88
:10062900F583E493FF120C4030B2FD30B3030206A8
:10063900B97F1E7E00120B3020B372E52615267095
:10064900021525C3E526950BE50A6480F8E52564BE
:1006590080987FC75019120C367F2D120C407FC825
:10066900120C367F2D120C407B09120B6F803E1243
:100679000C36AE25AF267C007D0A12041074262F95
:10068900F582740C3EF583E493FF120C407FC81287
:100699000C36AE25AF267C007D0A12041074262D77
:1006A900F582740C3CF583E493FF120C4030B3FDE2
:0106B900221E
:04083E008E2B8F2C42
:10084200782D7C007D007BFF7A0C79317E007F055C
:1008520012039BC3E52B64809480501A7F80120C94
:10086200367F2D120C40E52C152C7002152B632CB3
:10087200FF632BFF800A7F80120C367F2B120C4005
:10088200AC2BAD2CEC1202118F358E348D338C32A1
:10089200E4FFFE7DC87C40AB35AA34A933A83212EE
:1008A2000106E4FBFAF9783F12001512024A8E2B78
:1008B2008F2CAE2BAF2C7C277D101204108F2DAE07
:1008C2002BAF2C7C277D101204107E037FE8CFCD46
:1008D200CFCECCCE1204108F2EAE2BAF2C7C037D4C
:1008E200E81204107E007F64CFCDCFCECCCE1204AE
:1008F200108F2FAE2BAF2C7C007D641204107E0073
:100902007F0ACFCDCFCECCCE1204108F30AE2BAF1C
:100912002C7C007D0A1204108D317F82120C36E588
:100922002D2430FF120C407F83120C36E52E24302A
:10093200FF120C407F84120C36E52F2430FF120C7C
:10094200407F85120C367F2E120C407F86120C36A9
:10095200E5302430FF120C407F87120C36E531243B
:0509620030FF020C4013
:080003008F993099FDC299228A
:020B9300AE07AB
:100B9500E4FD7F7E120003EDC39E500C74192DF801
:0D0BA500E6FF1200030D80EF7FEF0200035A
:0609F3008B2B8A2C892DDC
:1009F900E4F52EF52FFCECC39D501AAB2BAA2CA9BC
:100A09002D8C827583001203C1252FF52FE4352E15
:100A1900F52E0C80E1C3E4952FF52FE4952EF52EE4
:100A2900AB2BAA2CA92D8C827583001203EEEC7CCA
:0E0A39000029F9EC3AFA900001E52F0203EED5
:060B6F007A01E4FD7F0F96
:100B75007519FF751A068F1B8D1C8A1D8B1E7B0030
:0E0B85007A0079197D061209F37F08020B939E
:03000B00020B499C
:100B4900C0E0C0D0758CF4758ADA0518E518B4FFD1
:100B590003751800E518D395275004D2908002C276
:060B690090D0D0D0E03274
:100B1F00C2A58F807F017E00120B30D2A77F057E8A
:010B2F0000C5
:100B3000D3EF9400EE9400400F7DC77C01DCFEDD16
:080B4000FAEF1F70EB1E80E8C4
:010B4800228A
:0A0C3600C2A7C2A6120B1FC2A7221C
:0A0C4000C2A7D2A6120B1FC2A72202
:100BD0007F38120C367F0C120C367F06120C367FD3
:090BE00001120C367F80020C3674
:100BB200D3EF9400EE940040147D6E7C00ED1D7026
:0D0BC200011CED4C70F7EF1F70E61E80E384
:010BCF002203
:100AF300C2B77F467E00EF1FAC0670011E4C70F636
:100B0300D2B7E4FEFF30B7110FBF00010ED3EF944D
:0B0B130088EE941340EF7F00227F016A
:010B1E0022B4
:0C0A4700120AF37F017E00120BB27FCC7C
:100A5300E4FBFAC2B7052DE52D7002052CEF1392C6
:100A6300B7752C00752D06E52D152DAC2C700215D0
:100A73002C4C70F3D2B7EFC313FF0BBB00010AEB8F
:050A830064084A70CE7A
:010A8800224B
:100A89007D087C00C2B70FBF0000D2B70FBF0000BE
:100A99000FBF0000A2B7E433C43333335480FBE9FA
:100AA900C3134BF97E007F04EF1FAA0670011E4A8B
:0D0AB90070F6ED1D70011CED4C70C9AF0111
:010AC600220D
:080C4A00120A477F44020A531D
:080C5200120A477FBE020A539B
:100BE900E4FFFE120C4A120C52120A898F2B120AC8
:060BF90089EFFEE52BFF71
:010BFF0022D3
:10000E000202B6E86480F8E933E83360110460F068
:10001E00ED33EC337009E8FCE9FDEAFEEBFF220458
:10002E0060DED3EB9FEA9EE99DE8C2E78CF0C2F753
:10003E0095F0400CE8CCF8E9CDF9EACEFAEBCFFB1F
:10004E0012028185D0F05804700320D5B3E80470F5
:10005E00075002B2D50202C092D5EC0460F7E4CC90
:10006E00C0E0C398F8603B94186008400DD0E0FBE8
:10007E00020298E4FBFAC9FC8028E830E406E4C9E1
:10008E00FBE4CAFCE830E305E4C9CACBFCE854073C
:10009E006010F8C3E913F9EA13FAEB13FBEC13FC47
:1000AE00D8F130F52FC3E49CFCEF9BFFEE9AFEEDEA
:1000BE0099FDD0E0FBEF4E4D4C701222DB03020295
:1000CE00BDEC2CFCEF33FFEE33FEED33FDED30E7F0
:1000DE00EB020298EF2BFFEE3AFEED39FDD0E0FB7E
:1000EE0050130BBB00030202C0ED13FDEE13FEEF27
:0800FE0013FFEC13FC02029851
:10010600EC4D6011E8497017ED33EC3304600DE4F3
:10011600FCFFFEFD22E933E8330470F80202B61252
:10012600028158046009E4CC248150062850090253
:1001360002C02840030202BDC0E0EB4A7044B98009
:1001460006D0E0FB0202ACEF4E701CBD8008EBFF50
:10015600EAFEE9FD80EBE98DF0A4FEE5F00201EF91
:10016600E9CDF9EAFEEBFFEF89F0A4FCE5F0CE89D4
:10017600F0A42EFFE435F0CD89F0A42DFEE435F091
:100186008067EF4E7005BD80D780C3EF8BF0A4ACBF
:10019600F0EE8BF0A42CFCE435F0F8EF8AF0A42CFA
:1001A600E5F038FCE433CB8DF0A42CFCE5F03BF80D
:1001B600EE8AF0A42CFCE5F038F8E433CF89F0A4FD
:1001C6002CFCE5F038CF3400CE89F0A42FFFE5F003
:1001D6003EFEE433C98DF0A42EFEE5F039CD8AF05B
:1001E600A42FFFE5F03EFEE43DFD33D0E0FB5007D3
:1001F6000BBB000F0202C0EC2CFCEF33FFEE33FE0C
:06020600ED33FD02029839
:10020C0075F020800E75F010800575F0087D007E6D
:10021C00007F003392D530D503120446EC334010E6
:10022C00EF33FFEE33FEED33FDEC33FCD5F0ED2276
:0E023C00E5F0247EA2D513CC92E7CDCEFF22B2
:10024A00EDD2E7CD33EC3392D524814006E4FFFEAC
:10025A00FDFC22FCE4CFCECDCC24E0501174FF800B
:10026A00EDC3CC13CCCD13CDCE13CECF13CF0470A8
:07027A00F030D5DE0204465E
:10028100E9D2E7C933E833F892D5EDD2E7CD33ECC3
:0702910033FC5002B2D5223C
:10029800EC30E7100FBF000C0EBE00080DBD0004C7
:1002A8000BEB6014A2D5EB13FCED92E7FD2274FF73
:1002B800FCFDFEFF22E480F8A2D574FF13FC7D80CC
:0302C800E480EFE0
:030000000209678B
:0C096700787FE4F6D8FD7581350209AEFA
:1002CB00E709F608DFFA8046E709F208DFFA803E15
:1002DB0088828C83E709F0A3DFFA8032E309F60802
:1002EB00DFFA8078E309F208DFFA807088828C836A
:1002FB00E309F0A3DFFA806489828A83E0A3F6081E
:10030B00DFFA805889828A83E0A3F208DFFA804CF7
:10031B0080D280FA80C680D4806980F280338010CE
:10032B0080A680EA809A80A880DA80E280CA803337
:10033B0089828A83ECFAE493A3C8C582C8CCC583AF
:10034B00CCF0A3C8C582C8CCC583CCDFE9DEE7807F
:10035B000D89828A83E493A3F608DFF9ECFAA9F0FE
:10036B00EDFB2289828A83ECFAE0A3C8C582C8CC54
:10037B00C583CCF0A3C8C582C8CCC583CCDFEADE6D
:10038B00E880DB89828A83E493A3F208DFF980CCCF
:10039B0088F0EF60010E4E60C388F0ED2402B404C8
:1003AB000050B9F582EB2402B4040050AF2323456F
:0603BB00822390031B7376
:1003C100BB010CE58229F582E5833AF583E02250F1
:1003D10006E92582F8E622BBFE06E92582F8E2223B
:0D03E100E58229F582E5833AF583E4932255
:1003EE00F8BB010DE58229F582E5833AF583E8F045
:1003FE00225006E92582C8F622BBFE05E92582C8F1
:02040E00F222D8
:10041000C2D5EC30E709B2D5E4C39DFDE49CFCEE07
:1004200030E715B2D5E4C39FFFE49EFE120454C327
:10043000E49DFDE49CFC800312045430D507C3E422
:060440009FFFE49EFE2276
:0E044600C3E49FFFE49EFEE49DFDE49CFC22C7
:100973000206BAE493A3F8E493A34003F68001F2DA
:1009830008DFF48029E493A3F85407240CC8C33385
:10099300C4540F4420C8834004F456800146F6DF54
:1009A300E4800B0102040810204080900AC7E47E13
:1009B300019360BCA3FF543F30E509541FFEE49349
:1009C300A360010ECF54C025E060A840B8E493A310
:1009D300FAE493A3F8E493A3C8C582C8CAC583CA3B
:1009E300F0A3C8C582C8CAC583CADFE9DEE780BEF3
:010AF2000003
:10045400BC000BBE0029EF8DF084FFADF022E4CC8C
:10046400F875F008EF2FFFEE33FEEC33FCEE9DEC55
:10047400984005FCEE9DFE0FD5F0E9E4CEFD22ED9B
:10048400F8F5F0EE8420D21CFEADF075F008EF2FE5
:10049400FFED33FD4007985006D5F0F222C398FDD6
:0504A4000FD5F0EA2273
:00000001FF
