:020000040800F2
:1000000080070020D50100086D080008F1070008EE
:1000100069080008C10400080B1000080000000077
:10002000000000000000000000000000730C000849
:100030006D06000800000000E50A0008850D0008B4
:10004000EF010008EF010008EF010008EF010008D0
:10005000EF010008EF010008EF010008EF010008C0
:10006000EF010008EF010008EF010008EF010008B0
:10007000EF010008EF010008EF010008EF010008A0
:10008000EF010008EF010008EF010008EF01000890
:10009000EF010008EF010008EF010008EF01000880
:1000A000EF010008EF010008EF010008EF01000870
:1000B000EF010008EF010008EF010008EF01000860
:1000C000EF010008EF010008EF010008EF01000850
:1000D000EF010008E90D0008EF010008EF0100083A
:1000E000EF010008EF010008EF010008EF01000830
:1000F000EF010008EF010008EF010008EF01000820
:10010000EF010008EF010008EF010008EF0100080F
:10011000EF010008EF010008EF010008EF010008FF
:10012000EF010008EF010008EF010008EF010008EF
:1001300000F002F800F03FF80AA090E8000C8244BA
:100140008344AAF10107DA4501D100F034F8AFF297
:10015000090EBAE80F0013F0010F18BFFB1A43F0A5
:10016000010318472421000044210000103A24BF55
:1001700078C878C1FAD8520724BF30C830C144BF0C
:1001800004680C607047000000230024002500264E
:10019000103A28BF78C1FBD8520728BF30C148BFEA
:1001A0000B607047642900F08B80002070471FB5FA
:1001B0001FBD10B510BD00F051F91146FFF7F7FF54
:1001C00001F014F900F06FF903B4FFF7F2FF03BC7C
:1001D00000F02BFF0948804709480047FEE7FEE78B
:1001E000FEE7FEE7FEE7FEE7FEE7FEE7FEE7FEE7E7
:1001F00004480549054A064B70470000890D000870
:1002000031010008800100208007002080030020C9
:1002100080030020704700000FB4044910B503AA02
:10022000029800F005F910BC5DF814FB38000020BE
:100230000FB41CB5074B06AA7B446946009005988D
:1002400000F0DDF80020694600F0ECF81CBC5DF819
:1002500014FB0000E90100002DE9F0410E460446C0
:10026000002020622046E168884730B3252805D069
:10027000D4E901219047206A401CF2E7E16820465A
:1002800000278847050018D0A5F14100192802D899
:1002900020354FF400673246294620462760FFF795
:1002A00081FF40B1012804D0F61D26F0070608366C
:1002B000D8E7361DD6E72846DAE7206ABDE8F081A0
:1002C0002DE9F0410646002410687529314616A52F
:1002D00010D0AFF30080002802DA404213A507E0F7
:1002E00031688A0701D512A502E0490704D511A596
:1002F000012401E0AFF3008000210A2206F1240767
:1003000009E0B0FBF2FCB0FBF2F302FB1C00303062
:1003100078541846491C0028F3D123462A46304613
:10032000BDE8F04100F00CB8000000002D00000016
:100330002B00000020000000704770477047704796
:100340002DE9F0470D4699469246044600F12408EF
:100350000168880604D5E06921F01001216000E001
:100360000120A84201DD471B00E00027A1697A199E
:1003700002EB0900081AA0612078C00602D42046CA
:10038000AFF30080002608E0D4E901211AF8060046
:100390009047206A401C761C20624E45F4DB207892
:1003A000C0060AD52046AFF3008006E0D4E901215B
:1003B00030209047206A401C2062381EA7F10107B8
:1003C000F4DC07E0D4E9012118F805009047206A21
:1003D000401C2062281EA5F10105F3DC2046AFF386
:1003E00000802078000602D50220BDE8F0870120B9
:1003F000FBE7000001694A1C02610878704700B5FC
:100400008FB0CDE901310021059105497944CDE94D
:10041000031011466846FFF71FFF0FB000BD000034
:10042000E5FFFFFF0A6802F8010B0A607047000051
:10043000074B70B50D467B44FFF7E1FF04462846A5
:1004400000F008F810B14FF0FF3070BD204670BDCD
:10045000D70C0000007B00F080007047754600F06C
:100460002BF8AE4605006946534620F00700854646
:1004700018B020B5FFF7BCFEBDE820404FF00006E5
:100480004FF000074FF000084FF0000B21F007017C
:10049000AC46ACE8C009ACE8C009ACE8C009ACE8BF
:1004A000C0098D46704710B50446AFF30080204662
:1004B000BDE81040FFF788BE004870471C010020CF
:1004C00000BFFEE710B500241548006820F4704016
:1004D000134908600846006840F40040086004E0E2
:1004E000601CC4B2012000F0EDFD0E48006808B1A8
:1004F000642CF5DB642C01DB012010BD002404E03A
:10050000601CC4B2012000F0DDFD0648006808B997
:10051000642CF5DB642C01DB0120EEE70020ECE726
:10052000040801402C01214208B50121042000F0FB
:10053000EBFA4FF40060ADF8000010208DF80300D6
:1005400003208DF802006946064800F090F84FF449
:100550000061044800F018F900F068F8FFF7B2FFF6
:1005600008BD00000008014010B5002404E0601C34
:10057000C4B2012000F0A6FD0D48006808B1642C4B
:10058000F5DB002404E0601CC4B2012000F09AFDF9
:100590000748006808B9642CF5DB282000F092FDBC
:1005A0000348006808B1012010BD0020FCE70000EE
:1005B0002C01214270B50024002506E06006040EDF
:1005C000FFF7D2FF0443681CC5B2082DF6DB2046B6
:1005D00070BD7CB505460E4600F028F8FFF772FFA7
:1005E000F8B9002405E0FFF7E5FF0DF80400601CF2
:1005F000C4B2052CF7DB9DF800009DF801100844FB
:100600009DF8021008449DF8031008449DF804105A
:10061000884208D19DF8000030709DF802002870D3
:1006200001E001207CBD0020FCE7000010B50C4873
:10063000006820F470400A4908600846006840F4E9
:1006400040500860002007490860142000F014FDA5
:1006500001200549C1F8AC011E2000F033FD10BD9A
:1006600004080140AC0121420000214270472DE9FD
:10067000F041024600250026002000230024002728
:1006800091F803C00CF00F0591F803C00CF0100CAA
:10069000BCF1000F03D091F802C04CEA050591F8B7
:1006A00000C0BCF1000F31D0146800202BE04FF0E7
:1006B000010C0CFA00F3B1F800C00CEA03069E42EC
:1006C00020D183004FF00F0C0CFA03F7BC4305FA5E
:1006D00003FC4CEA040491F803C0BCF1280F06D1D6
:1006E0004FF0010C0CFA00FCC2F814C00AE091F8BB
:1006F00003C0BCF1480F05D14FF0010C0CFA00FC0F
:10070000C2F810C0401C0828D1D31460B1F800C052
:10071000BCF1FF0F34DD546800202EE000F1080C1E
:100720004FF0010808FA0CF3B1F800C00CEA030618
:100730009E4221D183004FF00F0C0CFA03F7BC430B
:1007400005FA03FC4CEA040491F803C0BCF1280F3D
:1007500005D100F1080C08FA0CF8C2F8148091F8E1
:1007600003C0BCF1480F07D100F1080C4FF001089D
:1007700008FA0CF8C2F81080401C0828CED3546048
:10078000BDE8F081416170470161704702460B4648
:10079000581EC1B204E0505C00B103E0481EC1B273
:1007A0000029F8D100BF481CC0B2704730B50246DE
:1007B0000B464FF6FF700024002112E0555C6840A4
:1007C00000240AE000F0010525B14AF2010585EA9E
:1007D000600000E04010651CECB2082CF2DB4D1C00
:1007E000E9B29942EAD300250DB140F0A50030BD31
:1007F00000BFFEE770B505460C4600F0E1FC78202E
:1008000000F0B4FC00F004FD00B110E0284600F058
:10081000ADFC00F0FDFC00B109E0204600F0A6FCB4
:1008200000F0F6FC00B102E000F0E2FC00BF00F0D6
:10083000DFFC70BD08B50121482000F065F90120FA
:10084000ADF8000010208DF8030003208DF80200A1
:1008500069460448FFF70BFF01210248FFF794FFA8
:1008600008BD0000000C014000BFFEE7704700001B
:1008700070B5002100230F22C47804B3154C2468FE
:1008800004F4E064C4F5E064210AC1F10403CA4041
:10089000447804FA03F184781440214309010E4C92
:1008A0000678A155047804F01F050124AC400578B2
:1008B0006D11AD0005F1E025C5F8004109E00478AF
:1008C00004F01F050124AC40044D0678761145F86C
:1008D000264070BD0CED00E000E400E080E100E0A7
:1008E00070B50646002415E004F1B001C8B200F06E
:1008F0008EFB002000F08BFB102000F088FB002511
:1009000004E0304600F08AFB681CC5B2802DF8DB9D
:10091000601CC4B2082CE7DB70BD10B54FF47A70D0
:1009200000F0AAFBAE2000F072FB202000F06FFB6D
:10093000102000F06CFBB02000F069FBC82000F034
:1009400066FB002000F063FB102000F060FB4020FD
:1009500000F05DFB812000F05AFBFF2000F057FB08
:10096000A12000F054FBA62000F051FBA82000F0CD
:100970004EFB3F2000F04BFBA42000F048FBD320AF
:1009800000F045FB002000F042FBD52000F03FFBCB
:10099000F02000F03CFBD92000F039FB222000F0D1
:1009A00036FBDA2000F033FB122000F030FBDB20B6
:1009B00000F02DFB202000F02AFB8D2000F027FB0B
:1009C000142000F024FBAF2000F021FB10BD70B517
:1009D00004460D4605F1B001C8B200F018FB102125
:1009E00041EA141000F013FB04F00F0141F0010084
:1009F00000F00DFB70BD00002DE9F047064689466A
:100A000017469A464FF0000800240025BAF1010F5E
:100A100003D0BAF1020F5ED125E020E0785D2038E6
:100A200000F0FF087E2E04DD002609F1010000F031
:100A3000FF0949463046FFF7CAFF002409E008EBEA
:100A40004801264A02EB4101085D00F0E7FA601C0C
:100A5000C4B2062CF3DBB01DC6B2681CC5B2785D0B
:100A60000028DBD137E032E0785D203800F0FF0865
:100A7000782E04DD002609F1010000F0FF09494647
:100A80003046FFF7A4FF002407E004EB0811144AE6
:100A9000505C00F0C3FA601CC4B2082CF5DB09F10D
:100AA0000100C1B23046FFF792FF002408E004EBDA
:100AB000081108310A4A505C00F0B0FA601CC4B258
:100AC000082CF4DB06F10800C6B2681CC5B2785DDC
:100AD0000028C9D100BF00BFBDE8F087681A000830
:100AE000901C00087047000029B1064AD2690243F1
:100AF000044BDA6104E0034AD2698243014BDA61B4
:100B0000704700000010024029B1064A9269024372
:100B1000044B9A6104E0034A92698243014B9A6153
:100B2000704700000010024030B500210022002470
:100B300000232D4D6D6805F00C0121B1042905D06D
:100B4000082923D105E0294D056022E0274D0560E5
:100B50001FE0254D6D6805F47012234D6D6805F496
:100B60008034022505EB92421CB9214D55430560A6
:100B70000BE01D4D6D6805F400351DB11C4D55434E
:100B8000056002E0194D5543056002E0174D056010
:100B900000BF00BF144D6D6805F0F0010909154D47
:100BA0006B5C0568DD4045600F4D6D6805F4E061E4
:100BB000090A104D6B5C4568DD4085600A4D6D6823
:100BC00005F46051C90A0B4D6B5C4568DD40C5609A
:100BD000054D6D6805F44041890B074D6B5CC56898
:100BE000B5FBF3F5056130BD0010024000127A003C
:100BF00000093D003E0000204E00002021B1028887
:100C000042F04002028004E002884FF6BF731A40AF
:100C100002807047CA430281704702460020138950
:100C20000B400BB1012000E000207047014688898D
:100C300070478181704710B50022028802F441524A
:100C40000B884C8823438C882343CC8823430C890E
:100C500023434C8923438C892343CC8923431A4360
:100C60000280838B4FF2FF74234083830B8A0382BD
:100C700010BD704710B500F001F810BD0CB5002094
:100C8000019000903348006840F48030314908609A
:100C900000BF3048006800F4003000900198401C0C
:100CA0000190009818B90198B0F5A06FF1D12948CA
:100CB000006800F4003010B10120009001E0002035
:100CC00000900098012843D12348006840F01000AC
:100CD000214908600846006820F0030008600846C3
:100CE000006840F0020008601A48406819494860EE
:100CF0000846406848600846406840F480604860A4
:100D00000846406820F47C1048600846406840F47B
:100D1000E81048600846006840F08070086000BF36
:100D20000C48006800F000700028F9D009484068BD
:100D300020F00300074948600846406840F0020080
:100D4000486000BF0348406800F00C000828F9D153
:100D50000CBD00000010024000200240042808D111
:100D60004FF0E021096941F004014FF0E0221161E8
:100D700007E04FF0E021096921F004014FF0E02283
:100D8000116170477047000010B51348006840F0CB
:100D900001001149086008464068104908400E49A2
:100DA0004860084600680E4908400B49086008463C
:100DB000006820F4802008600846406820F4FE00A7
:100DC00048604FF41F008860FFF754FF4FF0006049
:100DD0000449086010BD0000001002400000FFF848
:100DE000FFFFF6FE08ED00E010B540F225511D486A
:100DF00000F04AF810B31B4800F002F9C4B21A48D8
:100E0000008800F40040C8B91748008800F480400A
:100E100060B10A2C03D000201349088020E012485A
:100E2000008840F400401049088019E00D2C06D1DC
:100E30000D48008840F480400B49088010E00A48C3
:100E40000088C0F30D0009490C5407480088401C75
:100E50000549088008460088C72801DD0020088071
:100E600010BD0000003801403C000020540000206C
:100E700021B1828942F40052828104E082894DF6D8
:100E8000FF731A408281704770B502460024002328
:100E90000025002040F66A16B14200D100BFC1F320
:100EA000421501F01F03012606FA03F3012D02D1BA
:100EB0009689334006E0022D02D1168A334001E0C4
:100EC000968A33400C12012606FA04F41688344040
:100ED00013B10CB1012000E0002070BDF0B5034655
:100EE000002400260025002040F66A17B94200D1F0
:100EF00000BF1846C1F3421401F01F06012707FA8C
:100F000006F5012C01D10C3004E0022C01D1103087
:100F100000E014301AB107682F43076002E0076849
:100F2000AF430760F0BD00002DE9F04786B00546ED
:100F30000E460024A24600BFA1460027B08900B19A
:100F400000BF2F462C8A4CF6FF700440F088044303
:100F50002C82AC894EF6F3100440B08831890843E6
:100F6000718908430443AC81AC8A4FF6FF400440CA
:100F7000B0890443AC8201A8FFF7D6FD1F48874221
:100F800002D1DDF810A001E0DDF80CA0A88900F482
:100F9000004040B10AEBCA0000EB0A10316849007A
:100FA000B0FBF1F807E00AEBCA0000EB0A10316869
:100FB0008900B0FBF1F86420B8FBF0F004012009CF
:100FC000642101FB1089A88900F4004040B132205F
:100FD00000EBC900B0FBF1F000F00700044308E0AB
:100FE000322000EB09106421B0FBF1F000F00F009B
:100FF00004432C8106B0BDE8F087000000380140B2
:1010000001468888C0F30800704700BFFEE710B5AE
:10101000044621460020FFF7EDFB10BD10B5044645
:1010200021464020FFF7E6FB10BD014600BF00202F
:101030007047000010B56FF00400FFF78FFE0A48FC
:1010400000680A49B0FBF1F00949087008460078C9
:1010500000EB4001C1EBC0104FF6FF7101EAC00088
:101060000449088010BD00000400002000127A002E
:1010700032000020340000200146114A12884A4301
:101080004FF0E0235A6100229A611A46126942F039
:1010900001021A6100BF4FF0E022106900F0010266
:1010A0001AB100F48032002AF5D04FF0E022126924
:1010B00022F001024FF0E0231A6100229A6170478A
:1010C000340000200146114A12784A434FF0E023D1
:1010D0005A6100229A611A46126942F001021A61AD
:1010E00000BF4FF0E022106900F001021AB100F4D5
:1010F0008032002AF5D04FF0E022126922F001027E
:101100004FF0E0231A6100229A61704732000020FC
:1011100000BF054A128802F04002002AF9D0C2B28C
:10112000014B1B1D1A8070470038014008B5012192
:101130000420FFF7E9FC6020ADF8000003208DF8E3
:10114000020014208DF8030069460348FFF78FFA68
:1011500000F04EF808BD000000080140002001E04A
:10116000411CC8B20A28FBDB7047000070B504467A
:10117000002520E004F0800018B140200F490860ED
:1011800003E040200D49091D0860FFF7E7FF20201C
:101190000A490860FFF7E2FF20200849091D08609E
:1011A000072D02D14020091F08606006040EFFF7DA
:1011B000D5FF681CC5B2082DDCDB70BD10080140EE
:1011C00010B540200949086020200860FFF7C6FFDD
:1011D00040200649091D0860FFF7C0FF2020034991
:1011E000091D0860FFF7BAFF10BD0000100801409C
:1011F00010B54020054908602020091F0860FFF74E
:10120000ADFF40200149091F086010BD14080140CE
:1012100010B540200C490860FFF7A0FF20200A49C4
:101220000860FFF79BFF08480838006800F040009E
:1012300008B1012400E0002420200349091D0860B2
:10124000FFF78CFF204610BD1008014010B586B096
:101250000446334884420CD03248844208D10121EC
:101260000C20FFF751FC01218803FFF73DFC00E053
:1012700000BF2B4884422DD02A48844229D18015B2
:10128000ADF8140010208DF8170003208DF816001B
:1012900005A92548FFF7EBF9A1152348FFF774FAD4
:1012A0004FF42040ADF8140018208DF817000320EB
:1012B0008DF8160005A91D48FFF7D9F92014ADF8DF
:1012C000140004208DF8170005A91848FFF7CFF97E
:1012D00000E000BF0020ADF800004FF48270ADF8D0
:1012E00002000020ADF80400ADF80600ADF80800DB
:1012F0004FF40070ADF80A003020ADF80C0000206B
:10130000ADF80E000720ADF8100069462046FFF743
:1013100092FC01212046FFF771FC06B010BD0000D1
:10132000003001400038004000080140000C01403E
:1013300008B501210820FFF7E7FB4FF48050ADF816
:10134000000010208DF8030003208DF8020069468C
:101350002148FFF78CF94FF480511F48FFF714FA2A
:1013600000F096F9002000F036FA802000F006FA2E
:10137000012000F030FA0021402000F05FFB002146
:10138000412000F05BFB00F04BFA1448007800F0BD
:101390005BFA1348007800F07DFA1248007800F0FC
:1013A000CEF9012000F025FA0F48007800F0B8F9D6
:1013B000002000F0D4F9FF2000F02BFA40F2FF30BB
:1013C00000F07AFA012000F0E7F9FF21122000F086
:1013D00035FB00F047FA08BD000C01401E0000205C
:1013E0001B0000201C0000201D00002086B00024EF
:1013F000FFF720FEFFF71EFA2B48FFF727FF4FF4F9
:10140000E13000F0CBFAFFF793FFFFF78FFEFFF715
:1014100084FA0020FFF764FA02E024A0FEF7FCFE45
:10142000FFF782F80028F8D0022324A20021084602
:10143000FFF7E2FA022324A219460020FFF7DCFAA4
:1014400030E0601CC0B204460A281FDD2149481C58
:10145000FFF7BFF81F4842781FA103A8FEF7E8FE78
:101460001C4802781CA16846FEF7E2FE022303AA8C
:1014700000212820FFF7C0FA02236A4619462820D7
:10148000FFF7BAFA134800F02BF80024134800685D
:1014900008B9012000E00020104908604FF47A707C
:1014A000FFF7EAFDCDE700000038004064687431C2
:1014B00031206572726F720A0000000074656D70F1
:1014C0003A2020202500000068756D693A20202010
:1014D00043000000000000202564000080812142BC
:1014E0002DE9FF4107462F4903C9CDE9000102A8B4
:1014F00000F090F8012853D19DF80800A52803D0EA
:10150000012004B0BDE8F0819DF80900012801D058
:101510000220F6E7062102A8FFF738F90446A11ECB
:1015200002A8FFF743F9611E02AA525CA11E02AB9A
:10153000595C42EA0121884201D00320E1E79DF88D
:101540000A00012826D18DF80200002515E09DF83B
:101550000B000121A9400840012802D0022808D12F
:1015600003E078788DF8030004E038788DF8040003
:1015700000E000BF00BF681CC5B2032DE7DB0521FA
:101580006846FFF713F9064630128DF80500F0B2F1
:101590008DF806000721684600F0B4F90020B0E796
:1015A000FF20AEE78022000810B5044600BF0221EC
:1015B0002046FFF732FB0028F9D002212046FFF732
:1015C00029FBFF212046FFF734FB00BF0121204605
:1015D000FFF723FB0028F9D001212046FFF71AFB73
:1015E0002046FFF723FB10BD70B50446002000F035
:1015F00085F804F07F01064800F05EF80448FFF724
:10160000D3FFC5B2012000F079F8284670BD000074
:101610000038004070B5054600F024F91220FFF7AD
:10162000E3FF00F0400040282ED11E20FFF7DCFF32
:1016300000F00400042821D100210D2000F0FEF963
:101640001320FFF7D1FF0646002000F057F80021D5
:101650000E4800F031F8002405E00C48FFF7A4FF25
:101660002855601CC4B2B442F7DB012000F046F8F4
:10167000FF21122000F0E2F9012070BDFF211220AD
:1016800000F0DCF90020F8E70020F6E70038004021
:1016900010B54FF480510748FFF774F80A20FFF7A0
:1016A000EBFC4FF480510348FFF76EF80A20FFF778
:1016B000E3FC10BD000C014070B504460D4600BFB0
:1016C00002212046FFF7A9FA0028F9D0022120467E
:1016D000FFF7A0FA29462046FFF7ABFA00BF012129
:1016E0002046FFF79AFA0028F9D001212046FFF79B
:1016F00091FA2046FFF79AFA70BD000010B5044633
:101700002CB14FF480710548FFF73EF804E04FF428
:1017100080710248FFF736F810BD00000008014054
:1017200070B504461D20FFF75FFF0546284664F3A9
:101730001F10C5B229461D2000F080F970BD70B59C
:1017400004461D20FFF750FF054605F0F10040EA72
:101750004400C5B229461D2000F070F970BD70B577
:1017600004461D20FFF740FF054605F0FE0040EA55
:10177000040529461D2000F061F970BD70B50546CD
:101780000120FFF731FF044604F07F042C4321467B
:10179000012000F053F970BD70B504462620FFF714
:1017A00023FF054605F0F70040EAC400C5B229460C
:1017B000262000F043F970BD70B504463120FFF7D4
:1017C00013FF054605F0F80040EA040529463120DC
:1017D00000F034F970BD70B505460120FFF704FF35
:1017E000044604F0F8042C432146012000F026F9B9
:1017F00070BD70B504461E20FFF7F6FE054605F0E5
:10180000FB0040EA8400C5B229461E2000F016F90C
:1018100070BD10B504462146222000F00FF910BD1E
:1018200010B508480178062000F008F9054841780D
:10183000072000F003F903488178082000F0FEF843
:1018400010BD00001800002010B5044687214D206F
:1018500000F0F4F80248015D092000F0EFF810BD37
:101860001F00002010B50120FFF7B5FF9F211120B8
:1018700000F0E4F8FF21242000F0E0F800214020EF
:1018800000F0DCF80021412000F0D8F80520FFF737
:10189000A2FF10BD70B504460320FFF78DFF1E2088
:1018A000FFF7A2FE0546284664F31F10C5B229467D
:1018B0001E2000F0C3F870BD38B504461E20FFF7A7
:1018C00093FE8DF800001F20FFF78EFE8DF80100BB
:1018D0009DF8000000F0FC00032101EA14210843F8
:1018E000C0B28DF80000E0B28DF801009DF8001044
:1018F0001E2000F0A3F89DF801101F2000F09EF8B4
:1019000038BD000070B504460D460120FFF763FFA7
:101910000021242000F092F8F721112000F08EF829
:101920002946222000F08AF800210E2000F086F8D7
:1019300000210D2000F082F80020FFF7DFFE80215B
:101940001548FFF7B9FE002606E021781248FFF798
:10195000B3FE641C701CC6B2AE42F6DB0120FFF77A
:10196000CDFE4021084600F069F80021412000F03A
:1019700065F80320FFF72FFF02E01420FFF77CFB40
:101980001220FFF731FE00F008000828F5D1FF21F2
:10199000122000F053F870BD0038004010B586B03A
:1019A0000446012144F20400FFF7AEF84FF4007042
:1019B000ADF8140003208DF8160018208DF81700DC
:1019C00005A91C48FEF753FE4FF48060ADF81400E3
:1019D00004208DF8170005A91648FEF748FE2520BB
:1019E0008DF8000003208DF801008DF80200012021
:1019F0008DF803006846FEF73BFF01940020ADF828
:101A00000800ADF80A00ADF80C00ADF810000C208D
:101A1000ADF80E0001A90848FFF786FA012240F24E
:101A200025510548FFF75AFA01210348FFF720FA2C
:101A300006B010BD000801400038014070B50446F2
:101A40000D460020FFF75AFE44F080010548FFF7DD
:101A500033FE29460348FFF72FFE0120FFF74EFE15
:101A600070BD0000003800400000000000000000D1
:101A7000002F000000000700070000147F147F14EF
:101A800000242A7F2A120062640813230036495575
:101A9000225000000503000000001C22410000004D
:101AA00041221C000014083E08140008083E0808E3
:101AB000000000A06000000808080808000060603E
:101AC0000000002010080402003E5149453E00007D
:101AD000427F4000004261514946002141454B315F
:101AE000001814127F10002745454539003C4A492B
:101AF000493000017109050300364949493600069D
:101B00004949291E00003636000000005636000004
:101B1000000814224100001414141414000041227F
:101B2000140800020151090600324959513E007C57
:101B30001211127C007F49494936003E4141412241
:101B4000007F4141221C007F49494941007F09092A
:101B50000901003E4149497A007F0808087F0000DA
:101B6000417F4100002040413F01007F0814224195
:101B7000007F40404040007F020C027F007F04084D
:101B8000107F003E4141413E007F09090906003EA9
:101B90004151215E007F09192946004649494931D2
:101BA0000001017F0101003F4040403F001F2040F5
:101BB000201F003F4038403F0063140814630007B3
:101BC0000870080700615149454300007F4141000A
:101BD00000552A552A55000041417F0000040201AA
:101BE0000204004040404040000001020400002088
:101BF00054545478007F48444438003844444420C6
:101C000000384444487F00385454541800087E0972
:101C100001020018A4A4A47C007F0804047800003A
:101C2000447D4000004080847D00007F10284400F7
:101C30000000417F4000007C04180478007C080408
:101C4000047800384444443800FC24242418001844
:101C5000242418FC007C0804040800485454542030
:101C600000043F444020003C4040207C001C2040B9
:101C7000201C003C4030403C004428102844001CFC
:101C8000A0A0A07C004464544C44141414141414F4
:101C90000000000000000000000000000000000044
:101CA000000000F8000000000000003330000000D9
:101CB00000100C06100C06000000000000000000E0
:101CC00040C07840C0784000043F04043F04040052
:101CD000007088FC08300000001820FF211E000062
:101CE000F008F000E018000000211C031E211E0077
:101CF00000F00888700000001E21232419272110FD
:101D000010160E000000000000000000000000009F
:101D1000000000E018040200000000071820400046
:101D200000020418E0000000004020180700000036
:101D3000404080F0804040000202010F010202009A
:101D4000000000F0000000000101011F010101007E
:101D5000000000000000000080B0700000000000E3
:101D6000000000000000000000010101010101016C
:101D70000000000000000000003030000000000003
:101D800000000000806018040060180601000000D8
:101D900000E010080810E000000F102020100F00D5
:101DA000001010F8000000000020203F202000005C
:101DB00000700808088870000030282422213000B4
:101DC00000300888884830000018202020110E00BC
:101DD0000000C02010F8000000070424243F240065
:101DE00000F80888880808000019212020110E003A
:101DF00000E0108888180000000F112020110E004C
:101E000000380808C83808000000003F0000000043
:101E10000070880808887000001C222121221C0004
:101E200000E010080810E0000000312222110F002D
:101E3000000000C0C00000000000003030000000C2
:101E40000000008000000000000080600000000032
:101E5000000080402010080000010204081020004B
:101E60004040404040404000040404040404040096
:101E7000000810204080000000201008040201002B
:101E8000007048080808F00000000030360100002B
:101E9000C030C828E810E0000718272423140B00DE
:101EA0000000C038E0000000203C23020227382058
:101EB00008F8888888700000203F202020110E003C
:101EC000C030080808083800071820202010080033
:101ED00008F808080810E000203F202020100F001C
:101EE00008F88888E8081000203F202023201800E8
:101EF00008F88888E8081000203F20000300000050
:101F0000C03008080838000007182020221E0200F0
:101F100008F808000008F808203F210101213F20AF
:101F2000000808F8080800000020203F20200000DA
:101F300000000808F8080800C08080807F000000CA
:101F400008F888C028180800203F20012638200003
:101F500008F8080000000000203F2020202030006A
:101F600008F8F800F8F80800203F003F003F200084
:101F700008F830C00008F808203F200007183F008C
:101F8000E01008080810E0000F10202020100F00BB
:101F900008F808080808F000203F210101010000AE
:101FA000E01008080810E0000F18242438504F00F3
:101FB00008F8888888887000203F2000030C3020B3
:101FC00000708808080838000038202121221C00F1
:101FD000180808F8080818000000203F200000003A
:101FE00008F808000008F808001F202020201F0023
:101FF0000878880000C83808000007380E01000083
:10200000F80800F80008F800033C0700073C03004C
:10201000081868808068180820302C03032C3020B2
:102020000838C800C83808000000203F2000000021
:1020300010080808C8380800203826212020180079
:10204000000000FE020202000000007F404040004D
:10205000000C30C000000000000000010638C00085
:1020600000020202FE000000004040407F0000002D
:102070000000040202020400000000000000000052
:102080000000000000000000808080808080808050
:102090000002020400000000000000000000000038
:1020A00000008080808000000019242222223F202E
:1020B00008F8008080000000003F112020110E0071
:1020C0000000008080800000000E11202020110000
:1020D000000000808088F800000E112020103F20B2
:1020E0000000808080800000001F22222222130036
:1020F000008080F0888888180020203F2020000081
:102100000000808080808000006B94949493600035
:1021100008F8008080800000203F210000203F2040
:1021200000809898000000000020203F2020000040
:10213000000000809898000000C08080807F000030
:1021400008F8000080808000203F24022D3020000D
:10215000000808F8000000000020203F20200000B8
:102160008080808080808000203F20003F20003FD2
:102170008080008080800000203F210000203F20E0
:102180000000808080800000001F202020201F0091
:10219000808000808000000080FFA12020110E00C0
:1021A0000000008080808000000E112020A0FF80B1
:1021B000808080008080800020203F21200001005E
:1021C00000008080808080000033242424241900B3
:1021D000008080E0808000000000001F20200000C0
:1021E0008080000000808000001F202020103F2001
:1021F000808080000080808000010E300806010091
:1022000080800080008080800F300C030C300F0035
:1022100000808000808080000020312E0E31200060
:10222000808080000080808080818E701806010090
:1022300000808080808080000021302C22213000AE
:1022400000000000807C020200000000003F4040CF
:1022500000000000FF00000000000000FF00000080
:102260000002027C800000000040403F00000000AF
:10227000000601010202040400000000000000004A
:10228000A501000000000000A822000800000020B6
:10229000540000006C010008FC22000854000020DB
:1022A0002C070000880100080000000000A24A047A
:1022B00000000000000000000102030406070809F6
:1022C0006C80000702090F8081828384858687885D
:1022D000898A8B8C8D8E8F0000000000000000002A
:1022E00000000000000000000000010203040102E1
:0C22F000030406070809020406080000A9
:04000005080001D519
:00000001FF
