:10053D00020B0000022900000A120000000000005A
:10054D00000000000A1C0000000000000000000078
:09055D0001110001080001260053
:0D064800758911E4F58DF58BC2ABC2A022BF
:1003F600D2A000000000000000000000C2A030A152
:10040600FDD28E20A1FDC28EC2A1AF8DEFFEAD8BB7
:100416007C00E42DFDEC3EFCE41201197BF97A190F
:100426007997783C12000E1201528E0B8F0CD3E591
:100436000C9464E50B94004005E4F50BF50CE4F52B
:040446008BF58D2283
:0E063A00758901758C4CE4F58AD2A9D28C2208
:03000B000204E606
:1004E600C0E0C0D0758C4C758A00050FE50FD3941B
:1004F600134009050D0510750F00052FE50DD39462
:0D0506003B4005050E750D00D0D0D0E03251
:04058E007F147E0058
:10059200D3EF9400EE940040147D6E7C00ED1D704C
:0D05A200011CED4C70F7EF1F70E61E80E3AA
:0105AF002229
:10062400758921759840E4F587758DFD858D8BD28C
:060634008EC29CC2AC2244
:080003008F993099FDC299228A
:0205D000AE0774
:1005D200E4FD7F7E120003EDC39E500C74122DF8D1
:0D05E200E6FF1200030D80EF7FEF02000323
:06044A008B308A3189327B
:10045000E4F533F534FCECC39D501AAB30AA31A956
:10046000328C827583001201D32534F534E43533A0
:10047000F5330C80E1C3E49534F534E49533F5337A
:10048000AB30AA31A9328C82758300120200EC7C59
:0E0490000029F9EC3AFA900001E5340202006E
:06051300E4FBFAFD7F1677
:100519001206247512FF7513068F148D158A168B12
:10052900177B007A0079127D0612044A7F081205AA
:04053900D00206489E
:1005EF00052EE52ED394014003E4F52EE52E70047D
:0E05FF00D291C290E52EB40104C291D2902296
:10060D00E4F52CF52EC290C291C2A0C2A1C2AFFBDF
:07061D00FAFD7F160205192A
:1005B000E4F50FF510F50DF52F752801F52BF5294C
:1005C000F52AF50BF50CC2A0C2A112063AD2AF2251
:10049E0020A64412058EE52C701420A60C1205EF32
:1004AE001205B0752C01E4F52620A62B80FBE4F591
:1004BE002D20A61612058E052DE52DD3943240F172
:1004CE0012060D7FE87E03020592E52DC39432508D
:0804DE00031205EF30A6FD2218
:10056700E4F590D2A4D2A5D2A6F52C120514120454
:100577009EE52CB401F8E526B4010312039CE52699
:0705870070EC12023080E766
:10023000E527B401061205B0E4F527E5286401704E
:10024000377B01FAFD7F17120519E5286401702537
:1002500020A51D7F0FFE12059220A5141203F6851E
:100260000B29850C2AE50C450B60EEE4F52880E9A6
:1002700012049E80D512051320A5157F0F7E001253
:10028000059220A50B1203F6850B29850C2A80F216
:1002900020A42DE4F52D20A42712058E052DE52D93
:1002A000D3943240F17B017A05E4FD7F0F120519EA
:1002B000752B01E4F52F7526017FE87E0302059278
:1002C000E52FC3946440157B017A05E4FD7F0F128E
:1002D0000519752B01E4F52F75260122E510D3943D
:1002E00002402C1203F6E50C450B6023C3E50C9588
:1002F0002AE50B952950157B017A04E4FD7F0F1246
:1003000005197F207E03120592120513E4F51022D1
:10039C0020A51A7F0F7E0012059220A50B120513C3
:1003AC00E4F52BF52675270120A53E80FB20A4390A
:1003BC007F0F7E0012059220A42C052BE52BD394E5
:1003CC00034003752B02E52BB4020B7B027A00E48D
:1003DC00FD7F17120519E52BB4030B7B037A00E4A0
:0A03EC00FD7F1712051930A4FD2251
:10000E00EC4D6011E8497017ED33EC3304600DE4EC
:10001E00FCFFFEFD22E933E8330470F80201BE1244
:10002E00018958046009E4CC248150062850090245
:10003E0001C82840030201C5C0E0EB4A7044B980F4
:10004E0006D0E0FB0201B4EF4E701CBD8008EBFF42
:10005E00EAFEE9FD80EBE98DF0A4FEE5F00200F783
:10006E00E9CDF9EAFEEBFFEF89F0A4FCE5F0CE89CD
:10007E00F0A42EFFE435F0CD89F0A42DFEE435F08A
:10008E008067EF4E7005BD80D780C3EF8BF0A4ACB8
:10009E00F0EE8BF0A42CFCE435F0F8EF8AF0A42CF3
:1000AE00E5F038FCE433CB8DF0A42CFCE5F03BF806
:1000BE00EE8AF0A42CFCE5F038F8E433CF89F0A4F6
:1000CE002CFCE5F038CF3400CE89F0A42FFFE5F0FC
:1000DE003EFEE433C98DF0A42EFEE5F039CD8AF054
:1000EE00A42FFFE5F03EFEE43DFD33D0E0FB5007CC
:1000FE000BBB000F0201C8EC2CFCEF33FFEE33FEFE
:06010E00ED33FD0201A02B
:1001140075F020800E75F010800575F0087D007E66
:10012400007F003392D530D503120222EC33401005
:10013400EF33FFEE33FEED33FDEC33FCD5F0ED226F
:0E014400E5F0247EA2D513CC92E7CDCEFF22AB
:10015200EDD2E7CD33EC3392D524814006E4FFFEA5
:10016200FDFC22FCE4CFCECDCC24E0501174FF8004
:10017200EDC3CC13CCCD13CDCE13CECF13CF0470A1
:07018200F030D5DE0202227D
:10018900E9D2E7C933E833F892D5EDD2E7CD33ECBC
:0701990033FC5002B2D52235
:1001A000EC30E7100FBF000C0EBE00080DBD0004C0
:1001B0000BEB6014A2D5EB13FCED92E7FD2274FF6C
:1001C000FCFDFEFF22E480F8A2D574FF13FC7D80C5
:0301D000E480EFD9
:03000000020310E8
:0C031000787FE4F6D8FD758134020357B5
:1001D300BB010CE58229F582E5833AF583E02250E1
:1001E30006E92582F8E622BBFE06E92582F8E2222B
:0D01F300E58229F582E5833AF583E4932245
:10020000F8BB010DE58229F582E5833AF583E8F034
:10021000225006E92582C8F622BBFE05E92582C8E0
:02022000F222C8
:0E022200C3E49FFFE49EFEE49DFDE49CFC22ED
:10031C00020567E493A3F8E493A34003F68001F28B
:10032C0008DFF48029E493A3F85407240CC8C333E2
:10033C00C4540F4420C8834004F456800146F6DFB1
:10034C00E4800B010204081020408090053DE47EFF
:10035C00019360BCA3FF543F30E509541FFEE493A6
:10036C00A360010ECF54C025E060A840B8E493A36D
:10037C00FAE493A3F8E493A3C8C582C8CAC583CA98
:10038C00F0A3C8C582C8CAC583CADFE9DEE780BE50
:010566000094
:00000001FF
